:020000040800F2
:10000000C83300202102000873240008EF1F0008F5
:100010007124000805060008C1280008000000003F
:10002000000000000000000000000000890100083E
:100030000706000800000000CD010008992500080F
:100040003B0200083B0200083B0200083B0200089C
:100050003B0200083B0200083B0200083B0200088C
:100060003B0200083B0200083B0200083B0200087C
:100070003B0200083B0200083B0200083B0200086C
:100080003B0200083B0200083B0200083B0200085C
:10009000B52800083B0200083B0200083B020008AC
:1000A0003B020008152600083B0200083B0200083E
:1000B0003B0200083B0200083B0200083B0200082C
:1000C0003B0200083B0200083B0200083B0200081C
:1000D0003B020008A92800083B0200083B02000878
:1000E0003B0200083B0200083B02000800F002F857
:1000F00000F03AF80AA090E8000C82448344AAF188
:100100000107DA4501D100F02FF8AFF2090EBAE885
:100110000F0013F0010F18BFFB1A43F0010318473B
:10012000E443000004440000103A24BF78C878C1BA
:10013000FAD8520724BF30C830C144BF04680C60ED
:10014000704700000023002400250026103A28BF35
:1001500078C1FBD8520728BF30C148BF0B60704739
:100160001FB51FBD10B510BD00F01BF91146FFF7FC
:10017000F7FF02F0BDFB00F039F903B4FFF7F2FF1F
:1001800003BC00F041F90000224B19680868B0E890
:10019000F00F80F30988BFF36F8F4FF0000080F3FA
:1001A00011884EF00D0E70470000000006480068F0
:1001B000006880F3088862B661B6BFF34F8FBFF363
:1001C0006F8F00DF00BF00BF08ED00E0EFF3098094
:1001D000BFF36F8F0F4B1A6820E9F00F106008B55E
:1001E0004FF0500080F31188BFF34F8FBFF36F8F34
:1001F00003F08AF94FF0000080F31188BDE8084051
:1002000019680868B0E8F00F80F30988BFF36F8FB2
:10021000704700BF60000020EFF3058070470000CA
:100220000948804709480047FEE7FEE7FEE7FEE78A
:10023000FEE7FEE7FEE7FEE7FEE7FEE704480549C6
:10024000054A064B7047000013260008ED00000821
:10025000C82D0020C8330020C82F0020C82F002040
:10026000032A40F2308010F0030C00F0158011F8E2
:10027000013BBCF1020F624498BF11F801CB00F8BA
:10028000013B38BF11F8013BA2F1040298BF00F80E
:1002900001CB38BF00F8013B11F0030300F02580CB
:1002A000083AC0F0088051F8043B083A51F804CBF2
:1002B000A0E80810F5E7121D5CBF51F8043B40F8B8
:1002C000043BAFF30080D20724BF11F8013B11F8C3
:1002D00001CB48BF11F8012B24BF00F8013B00F807
:1002E00001CB48BF00F8012B704710B5203AC0F091
:1002F0000B80B1E81850203AA0E81850B1E8185027
:10030000A0E81850BFF4F5AF5FEA027C24BFB1E863
:100310001850A0E8185044BF18C918C0BDE81040D4
:100320005FEA827C24BF51F8043B40F8043B08BFDD
:100330007047D20728BF31F8023B48BF11F8012BA4
:1003400028BF20F8023B48BF00F8012B70474FF050
:10035000000200B5134694469646203922BFA0E815
:100360000C50A0E80C50B1F12001BFF4F7AF090721
:1003700028BFA0E80C5048BF0CC05DF804EB890012
:1003800028BF40F8042B08BF704748BF20F8022B55
:1003900011F0804F18BF00F8012B7047704770476D
:1003A0007047754600F02CF8AE4605006946534686
:1003B00020F00700854618B020B5FFF73FFFBDE8E5
:1003C00020404FF000064FF000074FF000084FF0BC
:1003D000000B21F00701AC46ACE8C009ACE8C0094D
:1003E000ACE8C009ACE8C0098D46704710B50446BA
:1003F000AFF300802046BDE81040FFF7BEBE00000E
:1004000000487047642D002001491820ABBEFEE76C
:100410002600020070472DE9FF41044601252160B6
:10042000227103AF8DF80C50642600970846CDE981
:10043000015611462B46F22200F0B4FE23208DF81F
:100440000C000097CDE9015621790123F4222068A0
:1004500000F0A8FE204600F003F8BDE8FF81000090
:1004600070B588B00546062005A9CDE900106426C0
:100470000296297901238822286800F065FD1C4C2A
:10048000BDF81400E11C6081BDF81600A081BDF824
:100490001800E0810120CDE900100296297901239E
:1004A000A122286800F050FD072003A9CDE9001023
:1004B000029629790123E122286800F045FDBDF864
:1004C0000C0020829DF80E0020719DF810009DF810
:1004D0000F20014662F31F1161829DF8111009017E
:1004E00041EA1010A0829DF81200607108B070BD42
:1004F000000000201FB56423022203A98DE80E002E
:10050000017900680123FD2200F01EFDBDF80C00FA
:1005100042BA1E489203438A816BA2EB0352B0F9A0
:100520001430A1F5963103FB112290F905300479BE
:100530004B4361434FF400449B1204EBE1214B43D6
:10054000A10101EBA321B0F9103002F5804259431B
:1005500001F50051D21389134A43D1134943C0789E
:10056000C9114143B2EB211001D5002004E04FF046
:10057000C851884200DD0846001303F00BFE04B0AA
:100580006FF00901BDE8104003F02EBF000000200D
:100590001FB56423032203A98DE80E0001790068CA
:1005A0000123FA2200F0D0FC9DF80C009DF80D10FC
:1005B000000340EA01109DF80E1040EA11110F48A7
:1005C000CA104389B0F90C40A2EB4302C3EB2111DE
:1005D0004943B0F90E3062430913D212594302EB7A
:1005E000A131816301EB81008030001203F0D2FD64
:1005F00004B00349BDE8104003F0EEBC0000002049
:100600000000C842FEE77047F0B590F8205004683B
:10061000A468012D05D0022D03D0416A41F4802148
:100620004DE014F0406F01D1E50045D5C4F30164FD
:100630000125A5401D608D684FF4C0739DB1CE6843
:1006400035434E6845EAC605066803EB0417F551C5
:100650004FF4C275076805EB04150E697E51097DDC
:10066000012905D009E00E88CD6845EA4655EBE73B
:1006700001684E5946F480764E511179D2F80550F2
:100680004FF4C67641EA0521056806EB0416A95128
:100690001178D2F801204FF4C47541EA02210268B2
:1006A00005EB04155151006803EB0411425842F068
:1006B000010242500020F0BD416A41F40011416244
:1006C0000120F0BD70470246002092F82010012959
:1006D00001D002290CD111688A68520100D501208D
:1006E0008A68120100D5401C8968C90000D5401CE9
:1006F00070472DE9F05F0546006800244669D0F890
:1007000004908768D0F80CB0D0F810A0D0F818800A
:10071000F10748D0F90714D001218160B80703D54B
:10072000284600F0E2F90CE0780702D54FF40064A7
:1007300007E0380702D54FF4805402E0284600F065
:10074000D3F9F80516D529684FF480708860B8058C
:1007500003D5284600F0CBF90CE0780502D544F427
:10076000005407E0380502D544F4804402E02846EE
:1007700000F0BCF9F80316D529684FF48030886082
:10078000B80303D5284600F0B4F90CE0780302D58D
:1007900044F4004407E0380302D544F4803402E016
:1007A000284600F0A5F9300707D55FEACB6004D5ED
:1007B0002968102044F40074C86070074FF00807DF
:1007C00007D55FEA0B7004D52868C760284600F09B
:1007D00059F9B00706D52868C068800702D02846B6
:1007E00000F051F9700607D55FEACA6004D52968A0
:1007F000102044F480640861B00607D55FEA0A70EF
:1008000004D528680761284600F03EF9F00606D5B1
:1008100028680069800702D0284600F036F9B00346
:1008200008D55FEAC96005D52968102048602846C8
:1008300000F02CF9F00307D55FEA097004D52868A9
:100840004760284600F056F9300446D55FEA497003
:1008500040D5F00504D55FEAC87001D044F001042A
:10086000B00504D55FEA887001D544F00204700534
:1008700004D55FEA487001D544F00404300529D559
:1008800018F0700F26D008F07000402815D006DC54
:10089000102809D020280AD0302816D10AE0502884
:1008A0000ED0602811D10EE044F008040DE044F0B1
:1008B00010040AE044F0200407E044F0400404E09F
:1008C00044F0800401E044F480742868816921F0D8
:1008D00070018161296804204860002C05D0686A95
:1008E000204368622846FFF7EDFEBDE8F09F70B533
:1008F000040003D094F8200010B104E0012070BD82
:10090000204600F081F82068016841F00101016093
:1009100000F050FA0546052604E000F04BFA401BB3
:100920000A2811D820684068C007F6D020680168FE
:1009300021F00201016000F03DFA05460BE000F0F5
:1009400039FA401B0A2806D9606A40F40030606218
:1009500084F82060D2E7206840688007EFD4207ECA
:100960000128206801683DD021F080010160607E8F
:1009700001282068016838D021F040010160A07E84
:1009800001282068016833D021F020010160E07E59
:100990000128206801682ED041F010010160207FFD
:1009A00001282068016829D021F008010160607FDA
:1009B00001282068016824D021F004010160D4E9F5
:1009C00002010843D4E90412114308436168491E37
:1009D00008432168C86100206062012084F820007B
:1009E000002070BD41F08001C0E741F04001C5E743
:1009F00041F02001CAE721F01001CFE741F00801E2
:100A0000D4E741F00401D9E710B586B00021009188
:100A10000191029103910068174988422AD1174831
:100A2000C16941F00071C161C16901F000710491B7
:100A3000816941F0040181618069114C00F004007A
:100A400004904FF4006000906946204600F0C2F820
:100A5000A0140090022001900320039069462046D4
:100A600000F0B8F800220521142000F0F3FC142057
:100A700000F0E2FC06B010BD00640040001002402F
:100A8000000801407047704770477047704700008A
:100A900070B5044690F82000012804D0606A40F444
:100AA0000020606218E0022084F8200020680168BD
:100AB00021F00101016000F07DF905460EE000BF64
:100AC00000F078F9401B0A2808D9606A40F4003029
:100AD0006062052084F82000012070BD2068406815
:100AE000C007EDD1606270BD7047704770477047B6
:100AF00070477047704710B590F821100022022906
:100B000005D00421816380F82020012010BD0168F8
:100B10000B6823F00E030B6001680B6823F00103E0
:100B20000B6090F84030C46B012101FA03F363605D
:100B300080F8211080F82020104610BD10B590F8E4
:100B400021100024022903D00421816301243DE007
:100B500001680A6822F00E020A6001680A6822F041
:100B600001020A601A4A0168914201D1012121E083
:100B7000174A1432914201D110211BE0144A283245
:100B8000914201D1891515E0114A3C32914201D1BF
:100B900089140FE00E4A5032914202D14FF4803155
:100BA00008E00B4A6432914202D14FF4801101E017
:100BB0004FF08071064A083A5160012180F82110F7
:100BC000002180F82010416B01B18847204610BDFC
:100BD000080002402DE9F84FDFF8B8910024A9F190
:100BE000040B23460F2709F1040AABF1040EC9E0F8
:100BF0000125A5402A40AA427DD1674ED1F804C004
:100C0000ACEB0608B44532D014DCBCF1030F3AD08B
:100C100009DCBCF1000F2AD0BCF1010F1CD0BCF1E3
:100C2000020F31D11DE0BCF1110F17D0BCF1120F32
:100C30002AD119E0B8F5881F19D006DCB8F5803F35
:100C400015D0B8F5801F1FD111E0B8F5001F0ED0E8
:100C5000B8F5041F18D10AE0CB6815E0CB681B1D5E
:100C600012E0CB6808330FE0CB680C330CE08B68E4
:100C70002BB1012B4FF0080303D0456104E004239E
:100C800002E0056100E00023FF2A01D8064601E0EA
:100C900000F104064FEA840501D9A5F12005D6F834
:100CA000008007FA05FC28EA0C0803FA05F548EA73
:100CB0000508C6F800804D68ED0062D5374DAE6975
:100CC00046F00106AE61AD6924F0030605F00105AA
:100CD0000095334D06EB050CDCF80850A607360FDF
:100CE00007FA06F825EA0805DFF8B880404503D181
:100CF0004FF0000817E044E0DFF8AC80404502D137
:100D00004FF001080FE0DFF8A480404502D14FF01A
:100D1000020808E0DFF89880404502D14FF0030850
:100D200001E04FF0040808FA06F848EA0508CCF894
:100D300008804D68D9F80060ED024D4601D5164394
:100D400000E096432E604D68DAF80060AD0255462B
:100D500001D5164300E096432E604D68DBF8006035
:100D6000AD035D4601D5164300E096432E604D6805
:100D7000DEF80060ED03754601D5164300E09643AA
:100D80002E60641C0D682A46E5407FF431AFBDE853
:100D9000F88F00000804014000001110001002400C
:100DA0000000014000080140000C0140001001401B
:100DB0000014014001488068704700005000002086
:100DC00070B5040025D094F83D00002520B984F8C2
:100DD0003C50204600F07EFA242084F83D00206834
:100DE000016821F0010101602068016841F40041BF
:100DF00001602068016821F40041016000F01AFCE4
:100E00004D4A6168914201D84C4900E04C49884202
:100E100001D2012070BD4B492368B0FBF1F15E683F
:100E200026F03F060E435E606368934206D94FF496
:100E3000967359434FF47A73B1FBF3F12368491C5D
:100E40001E6A26F03F06314319626168914210D84C
:100E50004900401EB0FBF1F2521CC2F30B02042AFF
:100E600001D2042022E0B0FBF1F0401CC0F30B00E3
:100E70001CE0A268F2B301EBC10303EB0116431EB1
:100E8000B3FBF6F35B1C43F480431B0549D092B3DC
:100E900001EBC10202EB0111401EB0FBF1F0401C5E
:100EA000C0F30B0040F4804040F400402168CA6960
:100EB0004CF6FF739A431043C861D4E9071001430D
:100EC0002068026822F0C00211430160D4E90301E6
:100ED00001432068826848F2FF339A4311438160DE
:100EE000D4E9050108432168CA6822F0FF021043D3
:100EF000C86001E00EE016E02068016841F00101E1
:100F000001602564202084F83D00256384F83E506C
:100F1000002070BD01EB4106431EB3FBF6F35B1CE2
:100F2000B3E70120C2E701EB4101401EB0FBF1F045
:100F3000401CC0F30B00B7E7A086010080841E00B0
:100F400000093D0040420F002DE9FF4F83B000250E
:100F5000DDE910799A4693460446DDF8488000950D
:100F6000FFF728FF064694F83D0020287CD119237E
:100F7000012288492046009601F050F90028F5D159
:100F800094F83C0001286FD0012084F83C002068D0
:100F90000168C90703D1016841F0010101602068BF
:100FA000016821F400610160222084F83D004020A6
:100FB00084F83E0025646762A4F82A90608D20853D
:100FC0007548E062CDE9008653465A4620460499AA
:100FD00001F026F800287CD1208DDFF8C091202771
:100FE00068B1012814D00228206801681ED041F49D
:100FF000806101602068416980690090BCE02068E0
:10100000416981690091016841F400710160B3E0B8
:101010002068016821F48061016072B6206841692E
:1010200081690091016841F400710AE041F40061B6
:10103000016072B62068416981690091016821F4FC
:101040008061016062B697E0032865D801280CD062
:10105000022843464FF000024946204600960BD036
:1010600001F0DCF8A8BB0CE091E032464146204696
:1010700001F07AF968BB72E001F0D0F848BB72B6B3
:1010800033E02068016821F48061016072B6206855
:101090000069616A0870606A401C6062208D401EB1
:1010A0002085608D401E60853D4846F2A81100688D
:1010B000B0FBF1F0C0EBC00000EB80000090401EE0
:1010C000009007D020684069C04340070DD50098C4
:1010D000F5E727E044F8305F6773A573206940F0B7
:1010E0002000206162B625731CE02068016841F48D
:1010F0000071016020680069616A0870606A401CC4
:101100006062218D491E2185618D491E618562B60F
:1011100021680969017026E032464146204601F007
:1011200023F918B1012007B0BDE8F08F20680069ED
:10113000616A0870606A401C6062208D401E81B246
:101140002185608D401E608520684269D243520728
:1011500012D4032903D1016821F480610160206861
:101160000069616A0870606A401C6062208D401EE0
:101170002085608D401E6085208D00287FF464AF3F
:1011800084F83D7084F83E5084F83C50CBE7022050
:10119000C9E70000020010000000FFFF040001008A
:1011A0005C0000202DE9FF4F83B09A46DDE91197DE
:1011B00093460446DDF84080FFF7FCFD054694F8B1
:1011C0003D0020287FD11923012240492046009567
:1011D00001F024F8002876D194F83C00012872D060
:1011E000012084F83C0020680168C90703D1016828
:1011F00041F0010101602068016821F40061016093
:10120000212084F83D00402084F83E00002626641A
:10121000C4F82480A4F82A90608D20852C48E062D0
:10122000CDE9007553465A462046049900F076FFF2
:1012300070B930E02A463946204601F0CDF858B161
:10124000206C042804D12068016841F40071016019
:10125000012007B0BDE8F08F606A2168007808615E
:10126000606A401C6062218D491E89B22185628DB1
:10127000521E628522685369DB435B070BD469B158
:1012800000781061606A401C6062208D401E2085DD
:10129000608D401E6085208D0028CBD12A463946BE
:1012A000204600F08FFF0028CAD154F83D0B01689A
:1012B00041F400710160202004F81E09E67766778A
:1012C0000020C6E7FFE70220C3E70000020010008D
:1012D0000000FFFF10B586B000210091019102913E
:1012E000039100680F4988421AD10F4CA06940F061
:1012F0000800A061A069694600F008000490C020C1
:10130000009012200190032003900848FFF762FC30
:10131000E06940F40010E061E06900F4001004901E
:1013200006B010BD0054004000100240000C014007
:1013300002488168027811448160704750000020A3
:10134000074810B5016841F010010160032000F06A
:10135000A1F80F2000F006F800F04AF8002010BDB8
:101360000020024030B505461C4887B0816941F431
:1013700000618161806906A900F40060009001A805
:1013800000F038F900F066F91549164AB0FBF1F1A2
:101390001548491E0260416040F2E7320021C0E971
:1013A00003218160816100F029FB040012D10E4805
:1013B00000F052FB04000DD1192000F03DF8102D73
:1013C00007D200222946192000F044F8074805609A
:1013D00000E0012407B0204630BD000000100240AC
:1013E00040420F00002C01402C040020540000203B
:1013F0000F4808B5816941F001018161816901F0FF
:1014000001010091C16941F08051C161C0690022B0
:1014100000F0805000900F21901E00F01BF805484E
:10142000416821F0E06141F00071416008BD0000B9
:101430000010024000000140002809DB00F01F02FC
:10144000012191404009800000F1E020C0F8001126
:1014500070470000F0B40E4B1B680C46C3F3022328
:10146000C3F10705042D00D90425191D072901D250
:10147000002300E0DB1E012606FA05F1491E21408B
:1014800099409E40761E16403143F0BC01F019BAD7
:101490000CED00E0064900F0070208684FF6FF0374
:1014A000184040EA0220034A1043086070470000D9
:1014B0000CED00E00000FA05704700002DE9F04750
:1014C0000F46050061D0434E306800F00700B84277
:1014D00009D2306820F0070038433060306800F0EF
:1014E0000700B84251D128683B4C810712D540070C
:1014F00003D5606840F4E06060602878000703D599
:10150000606840F4605060606068A96820F0F00096
:10151000084360602878C00728D06868012810D088
:101520002168022810D0890700292EDA616821F08D
:10153000030101436160FFF73DFC804641F28839B9
:101540000DE021688903EFE78901EDE7FFF732FC41
:10155000A0EB0801494502D90320BDE8F087606887
:10156000696800F00C00B0EB810FEFD1306800F03B
:101570000700B8420BD9306820F0070038433060CC
:10158000306800F00700B84201D00120E5E7287874
:10159000400705D56068E96820F4E06008436060B2
:1015A0002878000706D56068296920F4605040EA71
:1015B000C100606000F05EF86168084AC1F3031181
:1015C000515CC8400649086006480068FFF7CAFE3B
:1015D0000020C2E70020024000100240CA44000878
:1015E0005C0000205400002001490120C8647047BD
:1015F000000042420F2202600C4A536803F00303CA
:101600004360536803F0F0038360536803F4E063BE
:10161000C36052684FF4E06303EAD20202610448F7
:10162000006800F0070008607047000000100240EA
:10163000002002400448054900684968044AC1F393
:101640000221515CC84070475C000020001002403D
:10165000DA4400080448054900684968044AC1F3AF
:10166000C221515CC84070475C000020001002405D
:10167000DA4400080E4A51680E4801F00C03042BAE
:1016800011D0082B0FD10C48C1F38343C903C05CB0
:101690000AD55168084AC1F34041921E515C054A7F
:1016A0005043B0FBF1F070470449484370470000D5
:1016B0000010024000127A00BA44000800093D0000
:1016C00010B5044CA068000603D5FFF7F5FE802096
:1016D000A07210BD001002402DE9F84F040070D038
:1016E0002078C04DC00749D06868C0F38100012848
:1016F00007D06868C0F38100022809D16868C00378
:1017000006D52868800339D560680028E7D035E021
:101710006068B0F5803F0BD010B1B0F5A02F11D0AC
:10172000286820F480302860286820F4802002E0B7
:10173000286840F480302860606890B1FFF73AFB79
:1017400006460AE0286840F480202860F0E700BFE1
:10175000FFF730FB801B642873D828688003F7D517
:101760000CE0FFF727FB064605E000BFFFF722FB72
:10177000801B6428F0D828688003F7D420789A4E1C
:1017800080074FF001094FF0000839D5686810F064
:101790000C0F07D06868C0F38100022809D168687F
:1017A000C00306D42868800714D52069012808D111
:1017B00010E02069B0B1C6F80090FFF7FBFA0746C9
:1017C00005E00AE1FFF7F6FAC01B0228C4D8286832
:1017D0008007F7D52868616920F0F80040EAC10069
:1017E00028600DE0C6F80080FFF7E4FA074604E041
:1017F000FFF7E0FAC01B022823D828688007F7D437
:10180000207800072CD57948A169D9B1C0F800909B
:10181000FFF7D0FA074604E0FFF7CCFAC01B022816
:101820000FD8686A8007F7D571484FF4FA510068FD
:10183000B0FBF1F0009000BF0098411E0091FAD279
:101840000EE080E0C0F80080FFF7B4FA074604E03D
:10185000FFF7B0FAC01B022875D8686A8007F7D472
:101860002078400760D5E8690027C00008D4E869FF
:1018700040F08050E861E869012700F08050009056
:101880005C480168C90513D40168834641F480713E
:101890000160FFF78FFA824606E000BFFFF78AFA81
:1018A000A0EB0A0064284ED8DBF80000C005F5D58F
:1018B000E06801280AD008B1052813D0286A20F072
:1018C00001002862286A20F0040002E0286A40F043
:1018D00001002862E06841F2883B98B1FFF76AFA9C
:1018E00082460BE0286A40F004002862EEE700BF61
:1018F000FFF760FAA0EB0A0159455AD8286A800719
:10190000F6D50CE0FFF756FA824605E0FFF752FAEB
:10191000A0EB0A0159454CD8286A8007F6D41FB1BC
:10192000E86920F08050E861E06988B36968C1F334
:101930008101022944D00228C6F8608004D0FFF754
:1019400039FA044638E034E0FFF734FA074604E099
:10195000FFF730FAC01B02282BD828688001F7D483
:10196000206AB0F5803F05D16868A16820F4003096
:1019700008436860D4E908010843696821F47411D8
:1019800008436860C6F86090FFF714FA044606E062
:1019900025E000BFFFF70EFA001B022809D82868CF
:1019A0008001F7D51BE000BFFFF704FA001B0228F7
:1019B00002D90320BDE8F88F28688001F4D40EE036
:1019C0000128F7D06868226A00F48031914204D17E
:1019D000616A00F47010884201D00120EAE700201B
:1019E000E8E700000010024000004242800442424A
:1019F0005C000020007000407047704710B5040084
:101A000003D094F83D0010B107E0012010BD002084
:101A100084F83C00204600F01EF8022084F83D00C7
:101A2000211D206800F0FCFD012084F8460084F8A8
:101A30003E0084F83F0084F8400084F8410084F8B8
:101A4000420084F8430084F8440084F8450084F898
:101A50003D00002010BD704790F83D10012901D0D5
:101A600001207047022180F83D100168CA6842F0E9
:101A70000102CA6000680B49884208D0B0F1804F6B
:101A800005D00949884202D00849884204D18168BA
:101A900001F00701062903D0016841F0010101604E
:101AA00000207047002C0140000400400008004066
:101AB00070472DE9F04104460068C66805694FF09B
:101AC0000007A90713D5B10711D5F91E016101203F
:101AD0002077206880698007204602D0FFF7E8FF62
:101AE00004E000F07EF8204600F07CF827776807D5
:101AF00016D5700714D521686FF004000861022024
:101B000020772068806910F4407F204602D0FFF7DC
:101B1000CFFF04E000F065F8204600F063F8277777
:101B2000280715D5300713D521686FF00800086124
:101B3000042020772068C0698007204602D0FFF784
:101B4000B7FF04E000F04DF8204600F04BF827778F
:101B5000E80616D5F00614D521686FF0100008616C
:101B6000082020772068C06910F4407F204602D00A
:101B7000FFF79EFF04E000F034F8204600F032F852
:101B80002777E80708D0F00706D021686FF001003A
:101B90000861204600F028F8280608D5300606D54A
:101BA00021686FF0800008612046FFF725FF680676
:101BB00008D5700606D521686FF040000861204600
:101BC00000F01CF8A8060AD5B00608D521686FF009
:101BD000200008612046BDE8F041FFF70EBFBDE8D8
:101BE000F08170477047000000680349884201D1C6
:101BF000FFF79EBB70470000002C01407047704704
:101C000070470000F8B5016804460868CA684B6967
:101C100010F00F0F4FF0000559D003F0010602F449
:101C20009077374365D0C10705D0D10503D5616CE6
:101C300041F001016164410705D5D90703D0616C0A
:101C400041F002016164810705D5D90703D0616CB9
:101C500041F004016164010707D502F0200131431E
:101C600003D0616C41F008016164616C00293AD0D5
:101C7000800604D5900602D5204600F03CFD206881
:101C80004069616CC0F38010090700D460B320463E
:101C900000F00AFD20684069400621D52068143014
:101CA00050E8001F21F0400140E80012002AF5D161
:101CB000E06BA8B16D494163E06BFEF73FFF002880
:101CC00011D0E06B416B01B0BDE8F04008478306DE
:101CD0000FD593060DD52046BDE8F84000F00BBDAA
:101CE0002046FFF78DFFF8BD2046FFF789FF6564AA
:101CF000F8BD266B2023012E7CD1C6067AD5D606E8
:101D000078D508684868009048694FF00206400698
:101D100040D5E16B086840680004000CE8D0A28D53
:101D20008242E5D9E085886920282DD020680C30D2
:101D300050E8001F21F4807140E80012002AF5D11C
:101D40002068143050E8001F21F0010140E8001223
:101D5000002AF5D12068143050E8001F21F040011E
:101D600040E80012002AF5D184F84230256320684B
:101D70000C3050E8001F21F0100140E80012002A4A
:101D8000F5D1E06BFEF7B7FE6663A08DE18D401ADA
:101D900081B22AE0A08DE18D401A81B2E08D002849
:101DA000A6D00029A4D022680C3252E8000F20F4FB
:101DB000907042E80007002FF5D12068143050E8F9
:101DC000002F22F0010240E80027002FF5D184F80F
:101DD0004230256320680C3050E8002F22F01002BA
:101DE00040E80023002BF5D166632046FFF707FF8C
:101DF000F8BDFFE705062BD5150629D594F8410057
:101E00002128F5D1A068B0F5805F01D12069B0B17B
:101E1000206A411C2162216800784860E08C401EE5
:101E20000004000CE084E3D12068C16821F0800147
:101E3000C1602068C16841F04001C160D8E7206AF4
:101E40000088C0F308004860206A801C2062E5E733
:101E50004006CDD55006CBD5CA68204622F04002B8
:101E6000CA6084F8413000F0C1F8C1E79926000843
:101E700070B5040004D094F84100002510B106E0CC
:101E8000012070BD84F84050204600F023F8242043
:101E900084F841002068C16821F40051C1602046E7
:101EA00000F08AFC2068016921F4904101612068FA
:101EB000416921F02A0141612068C16841F4005163
:101EC000C1606564202084F8410084F842006563A5
:101ED000002070BD30B585B00024009401940294B8
:101EE00003940068184988422CD11848816941F44C
:101EF00080418161816901F480410491816941F0EF
:101F0000040181618069124D00F0040004904FF4D7
:101F1000007000900220019003200390694628463B
:101F2000FEF758FE2815CDE90004694628460294BC
:101F3000FEF750FE002211462520FFF78BFA2520E0
:101F4000FFF77AFA05B030BD0038014000100240BA
:101F50000008014090F84230202B01D00220704749
:101F600021B11AB10023036300F082BC0120704745
:101F700030B400681A49884230D11A48002401461A
:101F80004278CB7912B1012A03D006E0422B1DD151
:101F900003E04D2B01D0447018E013498B54521CC0
:101FA000D2B24270202A11D3002344701A468C5CAE
:101FB000521C23449BB21E2AF9DBCA8B52BA9342AD
:101FC00004D1898949BA01810121817005490648F6
:101FD0000122C91D30BC5C38FFF7BCBF30BC704764
:101FE0000038014000000020A00100207047FEE7FB
:101FF00001684A69D24352050FD46FF480624A6186
:10200000002140F8301F202242738173026942F0A0
:102010000402026101730120704700207047000034
:102020002DE9F84F0446006889460B9D01689846E3
:10203000174641F4806101602068016841F48071B5
:10204000016000954FF0011B0022594620460A9B73
:1020500000F0E4F84FF4007A40B120680068C00551
:1020600001D5C4F840A00320BDE8F88F216809F02D
:10207000FE0008612B46284920460A9A00F016F90E
:10208000F0BB20684169806900902A4620460A9981
:1020900000F0A2F940B1206C04283AD12068016810
:1020A00041F40071016034E0FEB2B8F1010F09D0D3
:1020B0002168380A08612A4620460A9900F08CF9FE
:1020C0000028E8D1206806612A4620460A9900F0D7
:1020D00083F90028DFD12068016841F48071016034
:1020E00000950022594620460A9B00F097F80028E8
:1020F000B3D1216809F0FF0040F00100086100E061
:1021000007E02B46044920460A9A00F0CFF8002841
:10211000AAD00120A8E70000020001002DE9F84341
:10212000044600680D46DDE90897016898461646A2
:1021300041F4807101604B4600224FF001112046AE
:10214000009700F06BF848B120680068C00502D520
:102150004FF4007020640320BDE8F883216805F087
:10216000FE0008613B464A461549204600F09EF8AD
:1021700088B920684169806900903A4649462046FE
:1021800000F02AF948B1206C042804D120680168C5
:1021900041F4007101600120DEE7F5B2B8F1010FF2
:1021A00009D02168300A08613A464946204600F0C5
:1021B00013F90028E7D1206805610020CCE7000072
:1021C0000200010070B516460D4604461EE020468A
:1021D000FFF70EFF08B1012070BD681C16D0FEF796
:1021E000E9FD801BA84200D885B920684069C0433A
:1021F00040070BD5002044F8300F20216173A073F5
:10220000216941F0200121612073E4E720684069E1
:10221000C0434007DBD4002070BD00002DE9F0472B
:10222000984617460D460446C1F30746DDF8209050
:102230002AE000BFB8F1FF3F26D0FEF7BBFDA0EBC0
:102240000901414502D8B8F1000F1DD12068012EC7
:1022500016D0806925EA00000004000C12D000208E
:10226000B84211D1002044F8300F20216173A073CF
:10227000216941F02001216120730120BDE8F08730
:102280004069E7E70120EBE72068012E0AD080696A
:1022900025EA00000004000C06D00020B842C9D096
:1022A0000020EBE74069F3E70120F7E72DE9F0476D
:1022B000984616460D4604464FF000094FF0200A96
:1022C000C1F3074723E020684069C043400515D4A7
:1022D0002068016841F40071016021686FF480603A
:1022E0004861C4F8309084F83DA084F83E90216C99
:1022F00041F00401216484F83C9021E0701C06D078
:10230000FEF758FDA0EB0800B04203D816B1012F2C
:102310001FD021E02068012F15D0806925EA000038
:102320000004000C18D000BF44F8309F84F80DA0C2
:1023300084F80E90216941F02001216184F80C900D
:102340000120BDE8F087406925EA00000004000C88
:10235000EAD12068406901E02068806925EA000030
:102360000004000CAFD1ECE72DE9F04100259046C8
:102370000E460446202728E04069C043C0060CD41E
:1023800054F8301B6FF01000486144F8105967771B
:10239000A577206A2062257714E0FEF70BFDA0EBFD
:1023A0000800B04200D886B920684069C0434006A2
:1023B0000BD544F8305F6773A573206940F02000A7
:1023C000206125730120BDE8F08120684169C9437F
:1023D0004906D1D40020F6E770B516460D460446EE
:1023E0001EE02046FFF704FE08B1012070BD681C06
:1023F00016D0FEF7DFFC801BA84200D885B9206804
:102400004069C04300060BD5002044F8300F20215E
:102410006173A073216941F0200121612073E4E719
:1024200020684069C0430006DBD4002070BD000076
:102430000E4810B50C4901600221416000214FF4A3
:1024400040228160C0E903124FF48012426101769C
:1024500041768176C17601774177FEF748FA002808
:1024600001D072B6FEE710BD00640040C800002035
:10247000FEE7FFF725F9FEE72DE9F041054617468F
:102480000C461948FEF71FF900282BD0174928469B
:1024900001F0ACFE01F062FE154E054631462046C5
:1024A00001F0A4FE01F05AFE04463146384601F020
:1024B0009DFE01F053FE01460E482A0A031F0270DA
:1024C0004570220A8270C4700A0A027141710021AB
:1024D0008171C171BDE8F04103490246F8310248FB
:1024E000FEF792B8BDE8F081C8000020000020414E
:1024F0000000C84248000020074C4FF0FF35294635
:10250000606B00F00BFB0028F9D1D4E90F12A06931
:10251000FFF7B2FFF3E7000000000020012000F009
:10252000A9FAFBE71A4C42F210770025A07838B1DF
:10253000206A401C2062E06921890844E061A5709E
:10254000606A64306062B8421ED3206A50B1206A6B
:1025500001F038FE0646E06901F034FE314601F034
:102560003BFDA0610B48FEF713F8E0630948FDF757
:10257000C1FF206400F04CFEE561256200F068FEBA
:102580006562606B00F0A2FA642000F073FACDE798
:10259000000000208C01002010B5502080F311882D
:1025A000BFF34F8FBFF36F8F01F07CFB18B104496D
:1025B0004FF080500860002080F3118810BD0000AB
:1025C00004ED00E030B58FB028216846FDF7BFFE6E
:1025D00014210AA8FDF7BBFE01252804CDE900500F
:1025E000002407946846FFF777F808B172B6FEE753
:1025F0000F200A90CDE90B540D9400210AA80E94E7
:10260000FEF75CFF08B172B6FEE7FEF7EDFF0FB014
:1026100030BD70470148FFF74CBA00002C04002081
:10262000F0B50268194B1A4C1A4D4FF0804798428A
:1026300005D0B84203D0A04201D0A84203D122F075
:1026400070064A683243984205D0B84203D0A0428F
:1026500001D0A84203D122F44074CA6822434C69D5
:1026600022F08002224302608A68C2620A688262A3
:10267000984201D109690163012141610169C907DA
:1026800003D0016921F001010161F0BD002C01407E
:10269000000400400008004010B5406A0021C185D8
:1026A000C184FFF7ADFA10BD01680C3151E8002F6D
:1026B00022F4907241E80023002BF5D10168143117
:1026C00051E8002F22F0010241E80023002BF5D150
:1026D000016B012909D101680C3151E8002F22F06A
:1026E000100241E80023002BF5D1202180F8421090
:1026F00000210163704708B590F84210222901D0EB
:10270000022008BD82684FF480539A4201D10169CA
:1027100021B1816A9A421BD04AB10AE00268816AFB
:102720005268C2F308020A80816A891C08E00269C3
:1027300072B10268526802F07F020A70816A491C15
:102740008162C18D491E0904090CC18503D01BE0BB
:1027500002685268F1E70168CA6822F02002CA6084
:102760000168CA6822F48072CA6001684A6922F06E
:1027700001024A61202180F8421000214163026B6E
:10278000012A03D0FFF7F4FB002008BD01630168B4
:102790000C3151E8002F22F0100241E80023002BF9
:1027A000F5D101680A68D20602D50A684968009125
:1027B000818DFFF724FAE7E770B5044600680169E8
:1027C000E26821F44051114301612169A068084386
:1027D000616908432168CA6841F20C639A43024365
:1027E000CA6020684169A26921F4407111434161C6
:1027F0001E492068884202D1FEF72CFF01E0FEF757
:1028000019FF00EBC00101EB001260686421800039
:10281000B2FBF0F3B3FBF1F36FF018067343B2FBB6
:10282000F0F5B2FBF0F605EB8305322303EB05155B
:10283000B5FBF1F5B6FBF1F605F0F00505EB061575
:10284000B2FBF0F6B2FBF0F0B0FBF1F06FF0180263
:10285000504306EB800003EB0010B0FBF1F0216861
:1028600000F00F002844886070BD0000003801406F
:1028700081628285C28500214164222180F8421054
:10288000016921B10168CA6842F48072CA600168B6
:102890004A6942F001024A610068C16841F02001C2
:1028A000C1600020704700000148FFF7ABB900008D
:1028B000440100200148FDF71CBF0000C8000020B3
:1028C000FEE70907090E002804DB00F1E02080F88C
:1028D0000014704700F00F0000F1E02080F8141D94
:1028E0007047EFF30580002800D0012070470000FA
:1028F0009AB0FEF725FDFFF765FE5448816941F067
:1029000020018161816901F020010091816941F01C
:1029100004018161816901F004010091816941F044
:102920000801816180694A4900F008000090494827
:10293000002401604FF41651C0E901140C21C46059
:10294000C0E904418461C461FFF792FA08B172B62C
:10295000FEE740484049543801604049C0E901144D
:102960004FF48041C0E9034144618461C461046261
:10297000FEF726FA08B172B6FEE7FFF759FD01220D
:1029800037493448FFF7E6FA3249EC22543901F16D
:102990009C00FDF740FD2F487C38FEF779F82D4864
:1029A00040F223117C30DFF8B880C460846001609D
:1029B0000821016104750127A8F107086426CDF8F4
:1029C0000080CDE901763B46D022EC21D038FEF7DD
:1029D000BBFA4546A87158B1CDF800801D48CDE935
:1029E00001760123D022EE215438FEF7ADFAA8710A
:1029F0001894012118A8199400F048F80021686380
:102A000000F08CF81C22174903A8FDF76EFC00218A
:102A100003A800F0B5F81349A8621C221C310AA8CB
:102A2000FDF763FC00210AA800F0AAF80D49E8624E
:102A30001C22383111A8FDF758FC002111A800F024
:102A40009FF8286300F01DF8FEE700000010024028
:102A5000003801404401002000540040A0860100DD
:102A6000070000206444000801460020842900D0AB
:102A7000C81C704710B500B9012000F06BFC0020A5
:102A800010BD10B500F002FD002010BD38B5436840
:102A90004BB1012909D103200022009011460120E9
:102AA00000F0E1FD38BD012901D0002038BD03222E
:102AB0000021012000F0B6FD040004D000231A46D6
:102AC000194600F047FE204638BD000038B5002406
:102AD00005460094FFF705FF90B16946284600F0CF
:102AE000E9FE012801D0FF2038BD009888B10A49CD
:102AF0004FF080500860BFF34F8FBFF36F8F08E037
:102B000000231A461946284600F024FE012800D06A
:102B1000FF24204638BD000004ED00E038B5050074
:102B20004FF0000000900FD00024481C0ED001B1DF
:102B30000C46FFF7D6FEB8B16A460021284600F0E1
:102B400007FF012816D104E0802038BD4FF0FF3484
:102B5000EFE7009880B109494FF080500860BFF35B
:102B60004F8FBFF36F8F07E02146284600F03EFFEE
:102B7000012801D0FF2038BD002038BD04ED00E061
:102B80007FB50D4604464169B0F9080081B1A169DD
:102B900071B1FFF769FFD4E905128DE80700D4E9A8
:102BA00000102B46226901F044F8039004B070BD78
:102BB000FFF75AFF03A9CDE90001208A2B4682B214
:102BC000D4E9001001F008F8012801D00020EDE759
:102BD0000398EBE72DE9F041184C0F460546E668EF
:102BE0002068001D00F0C2FA38B9206890F82C1057
:102BF00001208840216981432161681C07D137B1D8
:102C00002168BDE8F0410E48091D00F0F4BA2068C3
:102C10003544B5424560216805D2A06BBDE8F0415E
:102C2000091D00F0D0BA606B091D00F0CCFAA06A53
:102C3000854200D2A562BDE8F0810000600000205E
:102C4000500500202DE9F041054600F0E1FA2E4C38
:102C5000A068401CA06020682C4F10B1606940B390
:102C60002DE02560A068012829D1002606EB86000A
:102C700007EB800000F099FA761C072EF6D3234864
:102C80008C3000F092FA2148A03000F08EFA1F48F4
:102C9000B43000F08AFA1D48C83000F086FA1B48AC
:102CA000DC3000F082FA19488C3060631430A06385
:102CB00005E02068E96AC06A884200D82560606A39
:102CC000401C6062E96A012022698840104320614B
:102CD00001EB810007EB8000291D00F08CFA00F069
:102CE000B7FA606900280CD02068E96AC06A884297
:102CF00007D207494FF080500860BFF34F8FBFF3F2
:102D00006F8FBDE8F0810000600000207404002097
:102D100004ED00E030B4026C0B46002A0BD0C16811
:102D20001144C1608468A14201D30168C16030BC14
:102D30001846FDF795BA30BC70472DE9F041856B18
:102D4000174604460026026C82B1C7B1E068FDF761
:102D500087FAE168206C091AE1602268914202D288
:102D6000A168081AE060022F16D017E02068A8B901
:102D7000A06800F0FDFF06460020A0600EE060683D
:102D8000FDF76EFA216C606808446060A1688842B3
:102D900004D32068606001E005B16D1E6D1CA56361
:102DA0003046BDE8F08110B5044690F8510058B1A6
:102DB00001280CD002280FD0502080F31188BFF3D7
:102DC0004F8FBFF36F8FFEE7206B00F055FA204660
:102DD000BDE8104000F050BA10BD000010484FF49C
:102DE0002051420706D0C01D0D4920F00700411AAE
:102DF000C1F520510B4A00230144C2E90003083900
:102E0000183A21F0070111604B600B600B1AC0E902
:102E1000001393604FF00040536050617047000012
:102E200064050020B4000020144E154CA6F1C8071C
:102E30004FF08058DFF84C9012E000BF00F0E8F946
:102E4000F068C568281D00F091F9A068401EA060D8
:102E50006068401E606000F0FBF92846FFF7A3FFA2
:102E600060680028EAD138680128F9D9C9F80080DB
:102E7000BFF34F8FBFF36F8FF2E700003C050020D8
:102E80006000002004ED00E00346009829B10260D4
:102E9000C0E90F31012100F019BC0060F8E72DE90D
:102EA000F0479A46DDE9098481466FF00303206B01
:102EB00003EB82021044089E20F00707780707D032
:102EC000502080F31188BFF34F8FBFF36F8FFEE761
:102ED000002561B1002023180A5C83F834200A5CC5
:102EE00012B1401C1028F6D384F8435001E084F856
:102EF0003450072E00D30626E662C4E91165201D72
:102F000000F05EF904F1180000F05AF92461C6F1EE
:102F100007006462A061E56484F850505246494657
:102F2000384600F011F92060B8F1000F01D0C8F860
:102F30000040BDE8F087000030B5114900E01146BF
:102F40000A688242FBD34B685C18844203D1406814
:102F500018444860084643681C18944209D1084C3C
:102F6000183C2468A24209D052681A4442600A6898
:102F700012680260814200D0086030BD0460F9E749
:102F8000B400002010B5044600F042F9A06B28B14F
:102F90005FF0000400F05CF9204610BD0124F9E761
:102FA0000648416B096829B1416BC968C96849681D
:102FB000816270474FF0FF31FAE7000060000020A7
:102FC00008484068401C4FF0500080F3118804D03E
:102FD000BFF34F8FBFF36F8FFEE7BFF34F8FBFF38A
:102FE0006F8FFEE7BC0000202DE9F041044600F0A1
:102FF0000FF994F9455004F1240609E0606A48B1DC
:10300000304600F047FF08B100F0D2F96D1E6DB2F6
:10301000002DF3DC4FF0FF3684F8456000F018F91E
:1030200000F0F6F894F9445004F1100709E0206923
:1030300048B1384600F02EFF08B100F0B9F96D1E16
:103040006DB2002DF3DC84F84460BDE8F04100F07F
:10305000FFB800002DE9F0410546002700F04CFACA
:10306000324E306808B9FFF7B9FE706905424ED19B
:10307000C5B3083568070ED005F00700C0F1080099
:103080000544680707D0502080F31188BFF34F8FA5
:10309000BFF36F8FFEE72DB37068854237D82348A2
:1030A000183001460C6801E020460C466168A942D0
:1030B00002D221680029F7D131688C4227D00768F5
:1030C0002168016060680837411B10290FD9601919
:1030D000420708D0502080F31188BFF34F8FBFF311
:1030E0006F8FFEE713E041606560FFF725FF6168C1
:1030F0007068401A7060B268904200D2B060706927
:1031000001430020C4E90001F068401CF06000F0B9
:10311000FBFE780707D0502080F31188BFF34F8F54
:10312000BFF36F8FFEE73846BDE8F0819C000020BA
:103130000449086818B10868826C521C82640868E7
:10314000704700006000002010B5031F4FF080742E
:103150001C601B1F21F001011960191F024B0B603D
:10316000143940380A6010BDC12F0008D0E901327F
:1031700001699A60D0E901235A604A68824201D10C
:1031800082684A60002202610868401E0860086880
:1031900070470000034B036003F154000860802077
:1031A00010607047D8010020704700F108014FF00F
:1031B000FF32C0E90112C160016100210160704766
:1031C00000210161704730B50B685A1C02D000F134
:1031D000080202E0026904E02246546825689D4224
:1031E000FAD953684B6099608A6051600861016840
:1031F000491C016030BD42684A6093688B609368E7
:103200005960916008610168491C016070470000C5
:10321000502080F31188BFF34F8FBFF36F8F0A499F
:103220004868401C486001280CD10848006810F02C
:10323000FF0F07D0502080F31188BFF34F8FBFF3EB
:103240006F8FFEE770470000BC00002004ED00E037
:103250000849486828B1401E486001D180F31188B0
:103260007047502080F31188BFF34F8FBFF36F8FEB
:10327000FEE70000BC00002070B500282AD0164DE3
:10328000A0F1080460686969084207D1502080F302
:103290001188BFF34F8FBFF36F8FFEE722683AB1FB
:1032A000502080F31188BFF34F8FBFF36F8FFEE77D
:1032B0008843606000F020F96068696808446860CD
:1032C0002046FFF739FE2869401C2861BDE87040A0
:1032D00000F01ABE70BD00009C0000204FF0E020FE
:1032E00000210161816105494FF47A720968B1FBDF
:1032F000F2F1491E41610721016170475C00002025
:1033000010B5FCF789FF114910280ED300F1E02019
:1033100090F8F0030A78904207D2502080F3118889
:10332000BFF34F8FBFF36F8FFEE7094800688968CE
:1033300000F4E060884207D9502080F31188BFF381
:103340004F8FBFF36F8FFEE710BD0000BC00002061
:103350000CED00E010B5020014D00F48006B38B13E
:10336000502080F31188BFF34F8FBFF36F8FFEE7BC
:1033700000F0C2F800211046FFF72CFC00F0C4FD5D
:10338000002807D105494FF080500860BFF34F8FE8
:10339000BFF36F8F10BD00006000002004ED00E05F
:1033A00002490A6A0260C9684160704760000020F3
:1033B00001490120C86170476000002010B50C462B
:1033C00050B1094909681831FFF7FDFE2046BDE8F4
:1033D00010400121FFF7FEBB502080F31188BFF39E
:1033E0004F8FBFF36F8FFEE76000002070B50400C1
:1033F00047D0A26CA2B1606C884200D30146E06A5B
:1034000088423ED0012A3CD11E4D2A6894420FD1F9
:10341000502080F31188BFF34F8FBFF36F8FFEE70B
:10342000502080F31188BFF34F8FBFF36F8FFEE7FB
:10343000E162A269002A02DBC1F10701A161124E1B
:1034400000EB8000616906EB8000814219D1201DEC
:10345000FFF78CFE012130B994F82C002A6901FA9B
:1034600000F082432A61E06A2A69814011432961A0
:1034700000EB800006EB8000211DBDE87040FFF7E7
:10348000BABE70BD600000207404002010B586B084
:103490000024039405AA04A903A80494FFF77AFE64
:1034A000DDE903010094CDE9011000230EA11048CD
:1034B000059A00F0BEFB0F490028C86211D05020C9
:1034C00080F31188BFF34F8FBFF36F8F4FF0FF3042
:1034D000886201204861CC6006B0BDE8104000F071
:1034E0004DB806B010BD000049444C450000000036
:1034F000292E0008600000200248016B491C01636E
:10350000704700006000002010B51A4C206B10B10D
:103510000120E06110BD0020E061206821680068A2
:10352000096B884204D8216820683431FFF73CFEDB
:1035300020691149B0FA80F0C0F11F0000EB800053
:1035400051F820206AB101EB800000F108024168C7
:1035500049684160914201D149684160C868206072
:1035600010BD502080F31188BFF34F8FBFF36F8FD2
:10357000FEE7000060000020740400201CB526490E
:1035800008780190FF20087008788DF800009DF8F9
:1035900000009DF8002000F0F000904207D050207D
:1035A00080F31188BFF34F8FBFF36F8FFEE79DF855
:1035B00000001A4C00F0500020700720A06005E0C9
:1035C0009DF8002052008DF80020401E9DF800203C
:1035D0001206F5D4A060032807D0502080F311888C
:1035E000BFF34F8FBFF36F8FFEE74FF44070A060C3
:1035F000019808700A48016841F47001016001688F
:1036000041F070410160FFF769FE00206060FCF747
:10361000CDFD00201CBD000000E400E0BC00002047
:1036200020ED00E0F8B517460E46050013D005FB67
:1036300006F04830FFF70EFD04000AD0002084F8A1
:10364000460004F148023B46314628460094FFF705
:103650001BFC2046F8BD502080F31188BFF34F8F2C
:10366000BFF36F8FFEE738B5049D18B153B1CAB1EF
:1036700081B120E0502080F31188BFF34F8FBFF35A
:103680006F8FFEE7502080F31188BFF34F8FBFF399
:103690006F8FFEE7502080F31188BFF34F8FBFF389
:1036A0006F8FFEE739B1502080F31188BFF34F8F41
:1036B000BFF36F8FFEE748241C46012384F8463091
:1036C0002B460094FFF7E0FB204638BD70B50D4651
:1036D000040025D0FFF79CFDD4E90F20216802FBF0
:1036E0000011A1600021A163216861600A46D4E94C
:1036F0000F01401E00FB0121E16021464FF0FF3029
:1037000001F8440F487004F110008DB1FFF74DFD32
:1037100004F12400FFF749FDFFF79AFD012070BD79
:10372000502080F31188BFF34F8FBFF36F8FFEE7F8
:1037300021690029F0D000F0ADFB0028ECD004494D
:103740004FF080500860BFF34F8FBFF36F8FE3E7F8
:1037500004ED00E02DE9FF4782B01D468A464FF098
:103760000008040003D0BAF1000F08D011E0502087
:1037700080F31188BFF34F8FBFF36F8FFEE7206C8C
:1037800038B1502080F31188BFF34F8FBFF36F8F94
:10379000FEE7022D0AD1E06B012807D0502080F30C
:1037A0001188BFF34F8FBFF36F8FFEE700F06CFA05
:1037B0003F4F4FF000094FF0805648B9049838B198
:1037C000502080F31188BFF34F8FBFF36F8FFEE758
:1037D000FFF71EFDA06BE16B884207D3022D05D0D9
:1037E0000498D0B1B8F1000F1AD01EE02A46514615
:1037F0002046FFF7A2FA616A19B104F1240000F033
:1038000049FB20B13E60BFF34F8FBFF36F8FFFF7CF
:103810001FFD012006B0BDE8F087FFF719FD22E08B
:103820006846FFF7BDFD4FF00108FFF711FDFFF7F8
:1038300063FEFFF7EDFC94F94400401C01D184F8CD
:10384000449094F94500401C01D184F84590FFF75D
:10385000FFFC04A9684600F085F930B12046FFF767
:10386000C3FB00F051FB0020D4E7FFF7D1FCA06BB5
:10387000E16B884213D1FFF7EBFC04F110000499CF
:10388000FFF79CFD2046FFF7AFFB00F03DFB002853
:103890009ED13E60BFF34F8FBFF36F8F98E7FFF766
:1038A000D7FC2046FFF7A0FB00F02EFB90E70000BE
:1038B00004ED00E070B50E46040009D0206C78B12C
:1038C000502080F31188BFF34F8FBFF36F8FFEE757
:1038D000502080F31188BFF34F8FBFF36F8FFEE747
:1038E000206848B9A06838B1502080F31188BFF330
:1038F0004F8FBFF36F8FFEE7FFF702FD5020EFF30E
:10390000118580F31188BFF34F8FBFF36F8FA16BC9
:10391000E06B884218D994F94500491CA163411C09
:1039200004D0401C84F8450001200EE0606A0028A5
:10393000FAD004F1240000F0ADFA0028F4D0002EF3
:10394000F2D001203060EFE7002085F3118870BDD0
:103950002DE9F04790468946040003D0B9F1000FE5
:1039600008D011E0502080F31188BFF34F8FBFF3D0
:103970006F8FFEE7206C38B1502080F31188BFF3C1
:103980004F8FBFF36F8FFEE7FFF7BAFC5020EFF3C6
:10399000118680F31188BFF34F8FBFF36F8FA76B32
:1039A000F7B194F9445049462046FFF7B3F97F1E1A
:1039B000A763681C04D06D1C84F84450012010E0FB
:1039C00020690028FAD004F1100000F063FA002802
:1039D000F4D0B8F1000FF1D00121C8F80010EDE7E4
:1039E000002086F31188BDE8F08700002DE9F3433D
:1039F000002683B00400354609D0206C78B15020F1
:103A000080F31188BFF34F8FBFF36F8FFEE7502015
:103A100080F31188BFF34F8FBFF36F8FFEE700F085
:103A200033F9DFF83C814FF000094FF0805748B977
:103A3000049838B1502080F31188BFF34F8FBFF343
:103A40006F8FFEE7FFF7E4FBA06BC8B1401EA063D9
:103A5000206810B9FFF76CFBA060206950B104F139
:103A6000100000F017FA28B1C8F80070BFF34F8FAC
:103A7000BFF36F8FFFF7ECFB012005B0BDE8F083CB
:103A8000049808B166B10FE03DB1502080F3118871
:103A9000BFF34F8FBFF36F8FFEE7FFF7D9FB5DE0FA
:103AA0006846FFF77DFC0126FFF7D2FBFFF724FDF8
:103AB000FFF7AEFB94F94400401C01D184F8449018
:103AC00094F94500401C01D184F84590FFF7C0FBF4
:103AD00004A9684600F046F80028204612D0FFF7F7
:103AE00083FA00F011FA2046FFF74CFA0028A9D01B
:103AF0009DB3FFF78DFB606A50B3206B0068C0F187
:103B0000070126E0FFF73EFAE0B1206838B9FFF779
:103B10007FFBA06800F078F90546FFF799FB04F1F8
:103B200024000499FFF74AFC2046FFF75DFA00F0F5
:103B3000EBF9002886D1C8F80070BFF34F8FBFF3B0
:103B40006F8F7FE72046FFF74FFA00F0DDF979E746
:103B50000021A068FFF74AFC9FE7FFE700208CE701
:103B600004ED00E02DE9F0410C46050011D0C4B190
:103B7000FFF74EFB174BDA686E682068911B471CF5
:103B800017D02F681B6A9F4219D0964217D801247C
:103B900010E0502080F31188BFF34F8FBFF36F8F79
:103BA000FEE7502080F31188BFF34F8FBFF36F8F74
:103BB000FEE70024FFF74CFB2046BDE8F081884279
:103BC00005D9401A20602846FFF7EAFBF1E70020FC
:103BD0002060DCE7600000202DE9FF5F8346DDE91F
:103BE0000E87994616468A469000FFF733FA05007D
:103BF0001CD05420FFF72EFA040014D000202563B7
:103C000084F85100CDE90240CDE900874B463246A9
:103C100051465846FFF743F92046FFF713F80120B5
:103C200004B0BDE8F09F2846FFF726FB4FF0FF30B9
:103C3000F6E7F0B585B0DDE90B640A9DA6B1DCB10D
:103C4000542700972663022684F85160002604AFAB
:103C5000CDE90246CDE90057FFF721F92046FEF7EE
:103C6000F1FF049805B0F0BD502080F31188BFF338
:103C70004F8FBFF36F8FFEE7502080F31188BFF3A3
:103C80004F8FBFF36F8FFEE70548416919B1006B95
:103C900018B10020704701207047022070470000D3
:103CA000600000202DE9F0412F4C0026206B28B148
:103CB000A069401CA0613046BDE8F081E5686D1C3C
:103CC000E56013D1606B006838B1502080F3118833
:103CD000BFF34F8FBFF36F8FFEE7606BA16B616324
:103CE000A063206A401C2062FFF75AF9A06ADFF83F
:103CF0007C80854209D3606B0068A0B1606BC068AE
:103D0000C7687868854211D2A0622068C06A00EB5B
:103D1000800158F82100012800D90126E069002817
:103D2000C9D00126C7E74FF0FF30EDE7381DFFF798
:103D30001DFAB86A18B107F11800FFF717FAF96A07
:103D40000120226988401043206101EB810108EBCA
:103D50008100391DFFF74FFAF86A2168C96A884265
:103D6000C9D30126C7E700006000002074040020CA
:103D700070B504004FF0000140D0214D2868844206
:103D800007D0502080F31188BFF34F8FBFF36F8FA0
:103D9000FEE7A06C38B1401EA064636CE26A9A42F0
:103DA0002CD040B12AE0502080F31188BFF34F8F10
:103DB000BFF36F8FFEE7201DFFF7D8F9114A0121ED
:103DC00050B9E06A00EB800352F8233023B92B6925
:103DD00001FA00F083432B61606CE062C0F10700E0
:103DE000A061E06A2B6981401943296100EB8000E2
:103DF00002EB8000211DFFF7FEF90121084670BD8E
:103E0000600000207404002070B504004FF0000032
:103E100034D01E4DE16A2A68D26A91422FD2A0693D
:103E2000002804DB2868C06AC0F10700A061184EB2
:103E300001EB8101606906EB810188421AD1201DE6
:103E4000FFF794F9012130B994F82C002A6901FA9E
:103E500000F082432A612868C06AE0622A698140D2
:103E60001143296100EB800006EB8000211DFFF764
:103E7000C2F902E02868C06AE062012070BD616C8E
:103E80002A68D26A9142F8D370BD00006000002019
:103E9000740400202DE9F041C068C468ACB104F19D
:103EA00018000746FFF762F9154D286B0126A0B1EF
:103EB00039461448FFF79FF9E06A2968C96A8842C1
:103EC0001CD90120EE61BDE8F081502080F31188FB
:103ED000BFF34F8FBFF36F8FFEE7201DFFF746F94B
:103EE000E16A2A6906FA01F01043286101EB8100BA
:103EF0000449B43901EB8000211DDBE70020E2E733
:103F000060000020280500202DE9F0472C4D0024FA
:103F10002746286B38B1FFF77BF9286B401E2863D2
:103F2000286B40B146E0502080F31188BFF34F8FDB
:103F3000BFF36F8FFEE7A968224E0120D1B3A6F12F
:103F4000B40980463068E8B1F068C46804F118002C
:103F5000FFF70CF9201DFFF709F9E06A2A6908FA52
:103F600000F11143296100EB800109EB8100211D63
:103F7000FFF741F9E06A2968C96A8842E2D3C5F8C7
:103F80001C80DFE70CB1FFF70BF8AC6944B1464683
:103F9000FFF788FE00B1EE61641EF9D10020A86130
:103FA000E86938B10849012738070860BFF34F8F27
:103FB000BFF36F8FFFF74CF93846BDE8F08700007C
:103FC000600000202805002004ED00E0014800F01A
:103FD000D9B900BF0000C07F4FF47F0C1CEAD0129B
:103FE0001EBF1CEAD11392EA0C0F93EA0C0F00F0EB
:103FF000858090EA010F48BF42F4807240F4000CC3
:1040000041F400002CF07F4120F07F4000B5814258
:10401000A2EB03020FF2081CACEB504EC0F1000003
:104020009EF800E04FEA4E0E00FB0EFC38BF490040
:104030004FEA2C1C02F5FA020CFB0EF34FEACE1EDF
:104040004FEA112C4FEAC1210EEB635E42EB224294
:104050000EFB0CFC4FEA1C5300FB03114FEA112C22
:104060004FEA01310EFB0CFC4FEADC4C00FB0C115B
:10407000C14228BF09184CEB03335DF804EB10EB89
:10408000410143EBC250B2F57C0F38BF704729D5D0
:1040900012F0F00F1CBF00F1C04000F0004070476C
:1040A000008182838485868788898B8C8D8E8F9111
:1040B0009293959697999A9C9D9FA0A2A3A5A7A835
:1040C000AAACAEB0B2B3B5B7B9BCBEC0C2C5C7C961
:1040D000CCCED1D4D7D9DCDFE2E6E9ECF0F3F7FAC5
:1040E000FE0000004FEA400C0CF1807CBCF17E4FDA
:1040F00028BF7047B0F1C04000F03FB990EA010F0F
:104100000CEAD11348BF42F48072624538BF634560
:1041100007D213F47F0F16D080EA010000F00040B0
:10412000704710B500F0E3F8097EFC3E00F005B8DA
:1041300080EA010000F00040704780EA010000F0D2
:10414000004000F01AB912F47F0F04BF0248704714
:1041500080EA010000F011B90000C07F41000B0EA1
:10416000D3F19E0208D950F400034FEA032323FA47
:1041700002F048BF4042704710B500F0B8F800BFE9
:1041800049922480002070476FF0004282EA2000AC
:104190007047000010F0004148BF4042B0FA80F381
:1041A00010FA03F2C3F19D030BD051EAC35101EBA6
:1041B0001220530638BF704700F1010008BF20F0FD
:1041C00001007047B0FA80F310FA03F2C3F19D03C7
:1041D0000AD0D90501EB1220530638BF704700F111
:1041E000010008BF20F00100704700004FF47F0C71
:1041F0001CEAD0121EBF1CEAD11392EA0C0F93EAFC
:104200000C0F00F0478090EA010F48BF42F4807223
:104210004FF0004C4CEA00204CEA012102EB030273
:10422000A0FB0113A2F50002002918BF43F001030F
:104230005B0028BF4FEA330342EB22425FEA132CB4
:104240004CEBC2502EBFBCEB436FB2F57C0F7047F6
:104250004FEA036CBCF1004F08BF20F00100B2F53B
:104260007C0F38BF70470BD582F0FF0212F5803FFC
:10427000C8BF704700F1C040D8BF00F00040704791
:1042800000F5000C5FEA4C0C48BF7047B0F1C0402D
:1042900000F073B890EA010F0CEAD11348BF42F462
:1042A0008072624538BF634504D280EA010000F0A5
:1042B0000040704710B500F01AF800BF8900013EB9
:1042C00000F007B800F009B85FEA410C5FEA1C6C27
:1042D00008D080EA010000F050B85FEA400C5FEAC5
:1042E0001C6CF6D14FF00040A0F5800070470EF135
:1042F000020E2EF0030E5EF8044B244204D44FEA63
:104300004102B2F17F4F11D84FEA4003B3F17F4F22
:104310000CD80ED14FEAD07CB2F17F4F0CEB4C0C95
:104320000CF1020C08BF4CEBD17C04E04FF0080C00
:1043300001E04FEAD17C0CEB4C0324FA03F404F0C7
:104340000704B4F1040C06D20EEB840CBDE8104057
:104350004CF0010C6047DFE80CF0070802024FF058
:104360000040A0F5800010BD0846420018BFD2F101
:10437000807288BF00F0004010BDFF2141EAD0509C
:10438000C00570470CF00F03092B08BF082000F090
:1043900051800A2B0BD0082B18BF704708BF1CF0A8
:1043A000400F0AD04FF000004FF0000170471CF0A2
:1043B000400F18BF4FF0004070471CF0100F08D09E
:1043C00020F0704300F07F4242EAD3014FEA43708D
:1043D000704700F0604021F07F4242EA000201F0A5
:1043E0007F4040EA727070474FF0FF0212EAD052ED
:1043F0001CBF92F0FF038B42C2BFD14200EBC15001
:104400007047002A0AD0002B0BD0002900F0004092
:10441000A4BF40F0FE4040F40000704700F00040B0
:10442000704743024FF00B0C18BF4CF0806C7FF4C8
:10443000CDAD70471CF4801F11D01CF4E02F03D0C9
:104440006FEACC31490070474FF04050EFF30082E3
:1044500022F0704242EA000282F3008870474FF077
:1044600000007047F84400081D250008FDFF00000B
:1044700000000000800000000000000000000000BC
:10448000E4440008F92400080100000000000000D6
:10449000800000000000000000000000EC44000864
:1044A00025250008000000000000000000010000B9
:1044B00000000000000000000102020304050607DE
:1044C00008090A0B0C0D0E0F101000000000000070
:1044D00000000102030406070809000000000102B1
:1044E0000304000043414E5461736B0053656E73C7
:1044F0006F725461736B000044656661756C74542F
:1045000061736B002445000800000020C800000013
:1045100028010008EC450008C80000200033000016
:10452000440100080000000000000000000000003E
:10453000000000000000000000000000000000007B
:10454000000000000000000000000000000000006B
:10455000000000000000000000000000000000005B
:10456000000000000000000000000000000000004B
:10457000000000000100000010000000000000002A
:1045800000127A000000000000000000000000009F
:10459000000000000000000000000000000000001B
:1045A000000000000000000000000000000000000B
:1045B00000000000000000000000000000000000FB
:1045C00000000000000000000000000000000000EB
:1045D00000000000000000000000000000000000DB
:0C45E00000000000AAAAAAAA0000000027
:04000005080000ED02
:00000001FF
