:020000040800F2
:10000000C03A0020990100087B28000895240008C8
:1000100079280008B9090008FD3300080000000035
:1000200000000000000000000000000001010008C6
:10003000CD0900080000000045010008413100081A
:10004000B3010008B3010008B3010008B3010008C0
:10005000B3010008B3010008B3010008B3010008B0
:10006000B3010008B3010008B3010008B3010008A0
:10007000B3010008B3010008B3010008B301000890
:10008000B3010008B3010008B3010008B301000880
:10009000DD330008B3010008B3010008B301000814
:1000A000B3010008BD310008B3010008B301000826
:1000B000B3010008B3010008B3010008B301000850
:1000C000B3010008B3010008B3010008B301000840
:1000D000B3010008B3010008B3010008B301000830
:1000E000B3010008B3010008B3010008DFF80CD029
:1000F00000F0D2FB004800471D520008C03A002023
:10010000224B19680868B0E8F00F80F30988BFF344
:100110006F8F4FF0000080F311884EF00D0E704786
:100120000000000006480068006880F3088862B696
:1001300061B6BFF34F8FBFF36F8F00DF00BF00BF0B
:1001400008ED00E0EFF30980BFF36F8F0F4B1A68E3
:1001500020E9F00F106008B54FF0500080F31188CF
:10016000BFF34F8FBFF36F8F06F092F94FF000008F
:1001700080F31188BDE8084019680868B0E8F00FFE
:1001800080F30988BFF36F8F704700BF6C000020B9
:10019000EFF3058070470000064880470648004797
:1001A000FEE7FEE7FEE7FEE7FEE7FEE7FEE7FEE727
:1001B000FEE7FEE7BB310008ED000008202A04DB63
:1001C000203A21FA02F00021704721FA02F3D040D0
:1001D000C2F12002914008431946704740EA0103EA
:1001E0009B0703D009E008C9121F08C0042AFAD2ED
:1001F00003E011F8013B00F8013B521EF9D27047B1
:10020000D2B201E000F8012B491EFBD27047002258
:10021000F6E710B513460A4604461946FFF7F0FF05
:10022000204610BD421C10F8011B0029FBD1801A8A
:100230007047F0B480EA0102D40F4200B2EB410FE4
:1002400002D20246084611464A0042D0C30DDDB232
:10025000C1F3C752AD1A202D35DAC1F3160141F4AE
:10026000000204B15242C5F1200602FA06F12A4109
:100270001044B3EBD05F23D0C4B1012DA0EBC35029
:1002800009DCF0BC4FF0004202EAC352DBB200F5D9
:10029000000000F01BB9400000F1807000EBC3507B
:1002A000A0F1807040EAD170490009E0490841EAB4
:1002B000C071A0EBC35000F50000400800EBC35034
:1002C000F0BC00F0FAB86142012202EB4101001BD0
:1002D000F6E7F0BC704781F00041AAE780F00040EB
:1002E000A7E780EA010210B502F00043400022D0E7
:1002F0004A001FD0010E01EB1261C0F35600C2F399
:10030000560240F4000042F40002A0FB0220000468
:100310007F39140400D0401C50EA124001D4400040
:10032000491EC2B20C0604EBD010401C4008802AC3
:1003300002D003E0002010BD20F00100002900DA07
:100340000020184310BD30B480EA010202F00045DD
:1003500030F0004221F0004013D090B1C30DD40D15
:10036000C2F31601C0F31600E41A41F4000140F490
:1003700000027D34914201D3641C00E04900002C4E
:1003800002DA30BC002070474FF400000023914295
:1003900001D3891A034340084FEA4101F7D151B113
:1003A000914202D14FF0004105E002D24FF001012D
:1003B00001E06FF0010103EBC450284430BC00F0B1
:1003C0007CB8C10F80EAE0700844CA079623002178
:1003D00000F07CB800F0004220F00040C10DC0F3F6
:1003E000160040F400007F2901DA002070479629AA
:1003F00003DCC1F19601C84001E096398840002A2B
:10040000F4D04042704700F0004230F000400AD083
:10041000C10D01F56071C0F3160042EA0151C20836
:1004200040071143704700200146704730B50B4626
:10043000014600202022012409E021FA02F59D4214
:1004400005D303FA02F5491B04FA02F52844151EE8
:10045000A2F10102F1DC30BD2DE9F05F054600207C
:1004600092469B4688460646814640241BE0284625
:10047000414647462246FFF7A1FE53465A46C01A58
:10048000914110D311461846224600F017FA2D1A52
:1004900067EB01084F4622460120002100F00EFACA
:1004A00017EB00094E41201EA4F10104DFDC484691
:1004B00031462A464346BDE8F09F0029A8BF704751
:1004C000401C490008BF20F00100704710B4B0FA8A
:1004D00080FC00FA0CF050EA010404BF10BC704725
:1004E00049B1CCF1200421FA04F411FA0CF118BF3F
:1004F000012121430843A3EB0C01CB1D4FEA00610E
:100500004FEA102042BF002010BC704700EBC350E0
:1005100010440029A4BF10BC7047401C490008BF0C
:1005200020F0010010BC70472DE9FE4F804681EAA3
:100530000300C00F0C46009021F0004123F000455D
:10054000B8EB0200A94105D24046214690461C4620
:100550000B46024623F00040104347D0270DC7F357
:100560000A00C3F30A510290401A019040286BDA46
:10057000C3F3130040F4801B0098924620B100237F
:10058000D2EB030A63EB0B0B01985946C0F1400212
:10059000504600F093F906460D4650465946019ADA
:1005A00000F09BF910EB08006141002487EA11522A
:1005B00084EAE7731A4340D0009A62B3019A012A91
:1005C0004FEA075215DC001B61EB02014FF00042BD
:1005D00002EA0752CDE90042001C41F58011324683
:1005E0002B4600F09BF903B0BDE8F08F4046214652
:1005F000F9E7001B61EB0201001C41F580130018B4
:100600005B412018A2F5001747EB030140EAD570C3
:10061000B6196D4111E06D084FEA360645EAC0751E
:100620004FEA0752001B61EB0201001C41F58011EB
:1006300049084FEA30000019514132462B4603B0B9
:10064000BDE8F04F00F05BB90098012240000023A4
:10065000D0EB020263EBE073009821464FEAE074AE
:10066000B8EB000061EB0401E9E783F000435BE7CE
:1006700081F0004158E72DE9FE4F81EA030404F0C0
:10068000004421F0004100944FF0000B23F00043A0
:1006900050EA01045ED052EA03045BD0C3F30A546B
:1006A000C1F30A552C44A4F2F3340194A0FB025484
:1006B000C1F3130141F48011C3F3130343F4801316
:1006C00001FB024400FB034E840A970A44EA81546A
:1006D00047EA8357A4FB076802958D0A05FB078547
:1006E0004FEA932C04FB0C542705029D4FEA065851
:1006F00047EA1637B5EB08056EEB070C870E920E2E
:1007000047EA811742EA8312A7FB0201B6EB0B010D
:1007100064EB00042B0D43EA0C335E1844EB1C50D1
:10072000DA465146E7FB0201C5F313044FEA0B33E7
:1007300043EA14534FEA0432019C43EA0603A4F14E
:100740000C040294009CCDE900B400F0E7F803B07B
:10075000BDE8F08F00200146F9E72DE9F04D81EA70
:10076000030404F0004B21F0004514464FF0000A4A
:1007700023F0004150EA050220D054EA01021DD0C6
:10078000C5F30A570246C5F31303C1F31300C1F3BF
:100790000A5640F4801543F48013A7EB0608101B9B
:1007A000D64608F2FD3873EB050002D308F10108C4
:1007B00001E092185B41B8F1000F03DA0020014616
:1007C000BDE8F08D00204FF48011064684460EE00F
:1007D000171B73EB050705D3121B63EB05030643D9
:1007E0004CEA010C49084FEA300092185B4150EA8C
:1007F0000107EDD152EA030012D082EA040083EA35
:100800000501084305D0101BAB4106D2012200238D
:1008100006E000224FF0004302E06FF001025310A7
:100820001AEB06004CEB085110EB0A0041EB0B01F0
:10083000BDE8F04D00F063B8C1F30A52C1F31301F3
:1008400040F2FF3341F480119A4202DA002001465F
:10085000704740F233439A42A2F2334202DC5242E2
:10086000FFF7ACBC00F02AB830B5041E71F10004EB
:1008700004DB4FF00044404264EB0101141E73F1AD
:10088000000405DB1C464FF00043524263EB0403B7
:10089000994208BF904230BD064C074D06E0E06823
:1008A00040F0010394E8070098471034AC42F6D3B7
:1008B000FFF720FCAC850008CC850008202A04DB6B
:1008C000203A00FA02F1002070479140C2F1200363
:1008D00020FA03F3194390407047202A06DBCB1718
:1008E000203A41FA02F043EAE07306E041FA02F3EB
:1008F000D040C2F12002914008431946704710B51C
:10090000141E73F1000408DA401C41F10001921832
:100910005B411A4301D120F0010010BD2DE9F04DDB
:1009200092469B4611B1B1FA81F202E0B0FA80F230
:1009300020329046FFF7C2FF04460F4640EA0A0005
:1009400041EA0B0153465A46084313D0114653EA75
:10095000010019D0C8F140025046FFF72FFC0546B0
:100960000E46504659464246FFF7A8FF084305D0B9
:10097000012004E020463946BDE8F08D0020054303
:1009800046EAE0762C4337430A986305E40AA0EB75
:1009900008000022FD0A44EA47540A3002D500202C
:1009A0000146E9E7010510196941DDE9084500192B
:1009B0006941BDE8F04DA2E7FEE7000001221021E9
:1009C000014800F071BC000000080140704700229F
:1009D000AFF3008030B50E4B054601205C7A012C48
:1009E00015D8587A00241C54587A03EB80004560CF
:1009F0005D7A03F108002A54587A421C5A7230304A
:100A000008703A2048702F208870CC70002030BDCC
:100A1000800D002090F82020012A07D0022A05D05E
:100A2000416A41F4802141620120704700684269B7
:100A30000A4342610020704710B590F820300268E8
:100A4000012B07D0022B05D0416A41F4802141627D
:100A5000012010BDD2F8000240F00100C2F80002EF
:100A6000087D00F01F0301209840D2F81C32834318
:100A7000C2F81C32CB69B3B9D2F80C328343C2F846
:100A80000C328C894B6864F31F434C6902EBC4043D
:100A9000C4F840320C890B6864F31F434C6902EBC5
:100AA000C404C4F84432CB69012B16D1D2F80C32FD
:100AB0000343C2F80C320C884B6864F31F434C6943
:100AC00002EBC404C4F840320C89CB6864F31F43C2
:100AD0004C6902EBC404C4F844328B69002BD2F891
:100AE00004320FD053EA0003C2F804320B69002B22
:100AF000D2F8143208D00343C2F81432096A01292B
:100B000004D008E08343EFE78343F5E7D2F81C12F3
:100B10000143C2F81C12D2F8000220F00100C2F812
:100B20000002002010BD704770B590F82040012CE5
:100B300005D0022C03D0416A41F4802128E00468EA
:100B400009B32469A40720D04FF4D874056804EBD6
:100B500001142D5915F00405956005682D591AD01A
:100B6000ED08556005682C5904F00204D4604FF478
:100B7000DA74056804EB01142E5906F00F06082EEE
:100B80000CD308250DE0E468DCE7416A41F400116C
:100B90004162012070BD6D0D1560E3E72D5905F030
:100BA0000F05156105682D59C5F307259561056881
:100BB0002C59240C54614FF4DC72046802EB0112CE
:100BC000A4581C700468A458240A5C700468A458D3
:100BD000240C9C700468A258120EDA704FF4DE7276
:100BE000046802EB0112A4581C710468A458240A7A
:100BF0005C710468A458240C9C710468A258120EFD
:100C0000DA71006829B1016941F020010161002019
:100C100070BDC16841F02001C160F8E72DE9F05FC7
:100C20000546006800244669D0F804908768D0F82B
:100C30000CB0D0F810A0D0F81880F10748D0F90710
:100C400014D001218160B80703D5284600F023FAAB
:100C50000CE0780702D54FF4006407E0380702D5AE
:100C60004FF4805402E0284600F014FAF80516D537
:100C700029684FF480708860B80503D5284600F0D5
:100C80000CFA0CE0780502D544F4005407E038056E
:100C900002D544F4804402E0284600F0FDF9F80350
:100CA00016D529684FF480308860B80303D52846EC
:100CB00000F0F5F90CE0780302D544F4004407E0B5
:100CC000380302D544F4803402E0284600F0E6F907
:100CD000300707D55FEACB6004D52968102044F4BB
:100CE0000074C86070074FF0080707D55FEA0B7003
:100CF00004D52868C760284600F05AF9B00706D521
:100D00002868C068800702D0284600F053F97006B2
:100D100007D55FEACA6004D52968102044F48064CE
:100D20000861B00607D55FEA0A7004D52868076134
:100D3000284600F07FF9F00606D52868006980078C
:100D400002D0284600F077F9B00308D55FEAC96001
:100D500005D5296810204860284600F06DF9F00399
:100D600007D55FEA097004D528684760284600F077
:100D700097F9300446D55FEA497040D5F00504D5AF
:100D80005FEAC87001D044F00104B00504D55FEA01
:100D9000887001D544F00204700504D55FEA4870FC
:100DA00001D544F00404300529D518F0700F26D081
:100DB00008F07000402815D006DC102809D0202843
:100DC0000AD0302816D10AE050280ED0602811D160
:100DD0000EE044F008040DE044F010040AE044F092
:100DE000200407E044F0400404E044F0800401E003
:100DF00044F480742868816921F070018161296858
:100E000004204860002C05D0686A204368622846A8
:100E1000FFF789FEBDE8F09F70B5040003D094F899
:100E2000200010B104E0012070BD204600F082F8DF
:100E30002068016841F00101016000F03BFA0546BD
:100E4000052604E000F036FA401B0A2811D8206875
:100E50004068C007F6D02068016821F002010160F7
:100E600000F028FA05460BE000F024FA401B0A289F
:100E700006D9606A40F40030606284F82060D2E7EE
:100E8000206840688007EFD4207E01282068016830
:100E90003DD021F080010160607E0128206801685A
:100EA00038D021F040010160A07E0128206801684F
:100EB00033D021F020010160E07E01282068016824
:100EC0002ED041F010010160207F012820680168C8
:100ED00029D021F008010160607F012820680168A5
:100EE00024D021F004010160D4E902010843D4E9CF
:100EF0000412114308436168491E08432168C86110
:100F000000206062012084F82000002070BD41F0C4
:100F10008001C0E741F04001C5E741F02001CAE788
:100F200021F01001CFE741F00801D4E741F00401BE
:100F3000D9E7000010B586B000210091019102911F
:100F400003910068174988422AD11748C16941F0C6
:100F50000071C161C16901F000710491816941F0C2
:100F6000040181618069114C00F0040004904FF489
:100F7000006000906946204600F0A6F8A01400909A
:100F800002200190032003906946204600F09CF85F
:100F900000220521142000F0AFFB142000F09EFB7E
:100FA00006B010BD0064004000100240000801407F
:100FB0007047000070B51B4B1B4A0021FFF7B4FDC2
:100FC00000282ED118480168A1F58072233A28D153
:100FD0000069082825D1134D288840BA00B2FFF7D0
:100FE000F0F91249FFF7AFF9A5F1200460616888B4
:100FF00040BA00B2FFF7E5F90D4E3146FFF7A3F90D
:10100000A061A88840BA00B2FFF7DBF93146FFF7CC
:101010009AF9E0612069002803D0BDE8704004F02F
:1010200027BA70BD2C000020B00A0020000020412B
:101030000000C842704770477047000070B5044612
:1010400090F82000012804D0606A40F4002060621B
:1010500018E0022084F820002068016821F00101D6
:10106000016000F027F905460EE000BF00F022F90C
:10107000401B0A2808D9606A40F4003060620520ED
:1010800084F82000012070BD20684068C007EDD1C1
:10109000606270BD70477047704770477047704717
:1010A0007047000070B5044600F004F90546601C66
:1010B00002D004480078044400F0FCF8401BA04231
:1010C000FAD370BD380000202DE9F84FDFF8B89151
:1010D0000024A9F1040B23460F2709F1040AABF100
:1010E000040EC9E00125A5402A40AA427DD1674EE1
:1010F000D1F804C0ACEB0608B44532D014DCBCF126
:10110000030F3AD009DCBCF1000F2AD0BCF1010F6B
:101110001CD0BCF1020F31D11DE0BCF1110F17D072
:10112000BCF1120F2AD119E0B8F5881F19D006DCDE
:10113000B8F5803F15D0B8F5801F1FD111E0B8F584
:10114000001F0ED0B8F5041F18D10AE0CB6815E0D7
:10115000CB681B1D12E0CB6808330FE0CB680C3363
:101160000CE08B682BB1012B4FF0080303D04561D5
:1011700004E0042302E0056100E00023FF2A01D817
:10118000064601E000F104064FEA840501D9A5F105
:101190002005D6F8008007FA05FC28EA0C0803FAB7
:1011A00005F548EA0508C6F800804D68ED0062D5EF
:1011B000374DAE6946F00106AE61AD6924F0030615
:1011C00005F001050095334D06EB050CDCF80850E1
:1011D000A607360F07FA06F825EA0805DFF8B880F3
:1011E000404503D14FF0000817E044E0DFF8AC8041
:1011F000404502D14FF001080FE0DFF8A4804045E0
:1012000002D14FF0020808E0DFF89880404502D193
:101210004FF0030801E04FF0040808FA06F848EA26
:101220000508CCF808804D68D9F80060ED024D46FD
:1012300001D5164300E096432E604D68DAF8006051
:10124000AD02554601D5164300E096432E604D6829
:10125000DBF80060AD035D4601D5164300E0964320
:101260002E604D68DEF80060ED03754601D516432B
:1012700000E096432E60641C0D682A46E5407FF42A
:1012800031AFBDE8F88F00000804014000001110E4
:10129000001002400000014000080140000C014025
:1012A00000100140001401400AB1016170470904B7
:1012B000FBE700000148806870470000380000200C
:1012C00070B5040025D094F83D00002520B984F8BD
:1012D0003C50204600F050F9242084F83D0020685E
:1012E000016821F0010101602068016841F40041BA
:1012F00001602068016821F40041016000F0ECFA0F
:101300004D4A6168914201D84C4900E04C498842FD
:1013100001D2012070BD4B492368B0FBF1F15E683A
:1013200026F03F060E435E606368934206D94FF491
:10133000967359434FF47A73B1FBF3F12368491C58
:101340001E6A26F03F06314319626168914210D847
:101350004900401EB0FBF1F2521CC2F30B02042AFA
:1013600001D2042022E0B0FBF1F0401CC0F30B00DE
:101370001CE0A268F2B301EBC10303EB0116431EAC
:10138000B3FBF6F35B1C43F480431B0549D092B3D7
:1013900001EBC10202EB0111401EB0FBF1F0401C59
:1013A000C0F30B0040F4804040F400402168CA695B
:1013B0004CF6FF739A431043C861D4E90710014308
:1013C0002068026822F0C00211430160D4E90301E1
:1013D00001432068826848F2FF339A4311438160D9
:1013E000D4E9050108432168CA6822F0FF021043CE
:1013F000C86001E00EE016E02068016841F00101DC
:1014000001602564202084F83D00256384F83E5067
:10141000002070BD01EB4106431EB3FBF6F35B1CDD
:10142000B3E70120C2E701EB4101401EB0FBF1F040
:10143000401CC0F30B00B7E7A086010080841E00AB
:1014400000093D0040420F002DE9FF4F83B09A464E
:10145000DDE9119793460446DDF84080FFF72AFF47
:10146000054694F83D0020287FD1192301224049E8
:101470002046009501F0A6F8002876D194F83C00AB
:10148000012872D0012084F83C0020680168C90757
:1014900003D1016841F0010101602068016821F475
:1014A00000610160212084F83D00402084F83E0066
:1014B00000262664C4F82480A4F82A90608D208534
:1014C0002C48E062CDE9007553465A4620460499FF
:1014D00000F0F8FF70B930E02A463946204601F0A6
:1014E00017F958B1206C042804D12068016841F430
:1014F00000710160012007B0BDE8F08F606A2168CB
:1015000000780861606A401C6062218D491E89B2C2
:101510002185628D521E628522685369DB435B0719
:101520000BD469B100781061606A401C6062208D44
:10153000401E2085608D401E6085208D0028CBD107
:101540002A463946204601F011F80028CAD154F83D
:101550003D0B016841F400710160202004F81E0970
:10156000E67766770020C6E7FFE70220C3E70000C2
:10157000020010000000FFFF10B586B000210091AE
:1015800001910291039100680F4988421AD10F4CD2
:10159000A06940F00800A061A069694600F0080059
:1015A0000490C0200090122001900320039008486E
:1015B000FFF78AFDE06940F40010E061E06900F4A3
:1015C0000010049006B010BD00540040001002400E
:1015D000000C014002488168027811448160704724
:1015E00038000020074810B5016841F01001016083
:1015F000032000F0A1F8062000F006F800F04AF8F9
:10160000002010BD0020024030B505461C4887B0C0
:10161000816941F400618161806906A900F400607C
:10162000009001A800F038F900F066F91549164A53
:10163000B0FBF1F11548491E0260416040F2E7320B
:101640000021C0E903218160816100F066FD040092
:1016500012D10E4800F090FD04000DD1192000F0C9
:101660003DF8102D07D200222946192000F044F839
:101670000748056000E0012407B0204630BD0000A7
:101680000010024040420F00002C0140200D0020BD
:101690003C0000200F4808B5816941F001018161DB
:1016A000816901F001010091C16941F08051C1617E
:1016B000C069002200F0805000900F21901E00F0C1
:1016C0001BF80548416821F0E06141F0007141607C
:1016D00008BD00000010024000000140002809DBA6
:1016E00000F01F02012191404009800000F1E0203C
:1016F000C0F8001170470000F0B40E4B1B680C4698
:10170000C3F30223C3F10705042D00D90425191DD5
:10171000072901D2002300E0DB1E012606FA05F1AD
:10172000491E214099409E40761E16403143F0BC30
:1017300001F07ABE0CED00E0064900F007020868EF
:101740004FF6FF03184040EA0220034A10430860A6
:10175000704700000CED00E00000FA057047000043
:101760002DE9F0470F46050061D0434E306800F088
:101770000700B84209D2306820F0070038433060D3
:10178000306800F00700B84251D128683B4C81070F
:1017900012D5400703D5606840F4E06060602878A7
:1017A000000703D5606840F4605060606068A96815
:1017B00020F0F000084360602878C00728D06868EF
:1017C000012810D02168022810D0890700292EDABC
:1017D000616821F0030101436160FFF76BFD804602
:1017E00041F288390DE021688903EFE78901EDE7CF
:1017F000FFF760FDA0EB0801494502D90320BDE8D1
:10180000F0876068696800F00C00B0EB810FEFD1E1
:10181000306800F00700B8420BD9306820F00700AC
:1018200038433060306800F00700B84201D0012032
:10183000E5E72878400705D56068E96820F4E060AE
:10184000084360602878000706D56068296920F49D
:10185000605040EAC100606000F05EF86168084ACC
:10186000C1F30311515CC84006490860064800688E
:10187000FFF7CAFE0020C2E700200240001002402D
:10188000C2840008440000203C00002001490120DF
:10189000C8647047000042420F2202600C4A53683D
:1018A00003F003034360536803F0F003836053685D
:1018B00003F4E063C36052684FF4E06303EAD202CA
:1018C00002610448006800F00700086070470000EB
:1018D00000100240002002400448054900684968A1
:1018E000044AC1F30221515CC84070474400002003
:1018F00000100240D2840008044805490068496885
:10190000044AC1F3C221515CC84070474400002022
:1019100000100240D28400080E4A51680E4801F0BF
:101920000C03042B11D0082B0FD10C48C1F38343B7
:10193000C903C05C0AD55168084AC1F34041921EF0
:10194000515C054A5043B0FBF1F0704704494843ED
:10195000704700000010024000127A00B2840008B4
:1019600000093D0010B5044CA068000603D5FFF740
:10197000F5FE8020A07210BD001002402DE9F84F46
:10198000040070D02078C04DC00749D06868C0F30B
:101990008100012807D06868C0F38100022809D1BE
:1019A0006868C00306D52868800339D560680028B8
:1019B000E7D035E06068B0F5803F0BD010B1B0F5EE
:1019C000A02F11D0286820F480302860286820F4E7
:1019D000802002E0286840F480302860606890B180
:1019E000FFF768FC06460AE0286840F4802028607B
:1019F000F0E700BFFFF75EFC801B642873D82868FF
:101A00008003F7D50CE0FFF755FC064605E000BF64
:101A1000FFF750FC801B6428F0D828688003F7D4B7
:101A200020789A4E80074FF001094FF0000839D511
:101A3000686810F00C0F07D06868C0F381000228B6
:101A400009D16868C00306D42868800714D52069C6
:101A5000012808D110E02069B0B1C6F80090FFF766
:101A600029FC074605E00AE1FFF724FCC01B022819
:101A7000C4D828688007F7D52868616920F0F80085
:101A800040EAC10028600DE0C6F80080FFF712FCB4
:101A9000074604E0FFF70EFCC01B022823D8286885
:101AA0008007F7D4207800072CD57948A169D9B1EF
:101AB000C0F80090FFF7FEFB074604E0FFF7FAFBD3
:101AC000C01B02280FD8686A8007F7D571484FF409
:101AD000FA510068B0FBF1F0009000BF0098411E81
:101AE0000091FAD20EE080E0C0F80080FFF7E2FB40
:101AF000074604E0FFF7DEFBC01B022875D8686AC2
:101B00008007F7D42078400760D5E8690027C00037
:101B100008D4E86940F08050E861E869012700F0E6
:101B2000805000905C480168C90513D40168834661
:101B300041F480710160FFF7BDFB824606E000BF03
:101B4000FFF7B8FBA0EB0A0064284ED8DBF80000D2
:101B5000C005F5D5E06801280AD008B1052813D0E2
:101B6000286A20F001002862286A20F0040002E0C0
:101B7000286A40F001002862E06841F2883B98B191
:101B8000FFF798FB82460BE0286A40F004002862C9
:101B9000EEE700BFFFF78EFBA0EB0A0159455AD8CC
:101BA000286A8007F6D50CE0FFF784FB824605E043
:101BB000FFF780FBA0EB0A0159454CD8286A800743
:101BC000F6D41FB1E86920F08050E861E06988B37D
:101BD0006968C1F38101022944D00228C6F86080F7
:101BE00004D0FFF767FB044638E034E0FFF762FB00
:101BF000074604E0FFF75EFBC01B02282BD82868CD
:101C00008001F7D4206AB0F5803F05D16868A168EB
:101C100020F4003008436860D4E90801084369688B
:101C200021F4741108436860C6F86090FFF742FB26
:101C3000044606E025E000BFFFF73CFB001B02283E
:101C400009D828688001F7D51BE000BFFFF732FBF9
:101C5000001B022802D90320BDE8F88F2868800104
:101C6000F4D40EE00128F7D06868226A00F48031CD
:101C7000914204D1616A00F47010884201D00120C1
:101C8000EAE70020E8E700000010024000004242BE
:101C900080044242440000200070004070B50400FF
:101CA00009D0606A002540B125616561A56294F89C
:101CB000510040B10CE0012070BD6068B0F5827F3A
:101CC000F4D0E561F2E784F85050204600F040F887
:101CD000022084F851002068016821F04001016071
:101CE000A088218900F4827001F404410843A1898D
:101CF00001F400610843217C01F002010843217DC9
:101D000001F001010843218B01F400710843217F98
:101D100001F03801084394F8201001F080010843D5
:101D2000218D01F40051084321680860A069042155
:101D300001EA1040216848602068C16921F400610F
:101D4000C1616565012084F85100002070BD00006C
:101D500030B585B000240094019402940394006887
:101D60001449884224D11448816941F48051816129
:101D7000816901F480510491816941F0040181611C
:101D800080690E4D00F004000490A0200090022015
:101D900001900320039069462846FFF795F94020FB
:101DA000CDE900040120029069462846FFF78CF92E
:101DB00005B030BD00300140001002400008014075
:101DC0002DE9F84F984616468A460446FFF772FA00
:101DD000814694F8510001281ED1BAF1000F73D04A
:101DE000002E71D094F85000012815D0012784F8F6
:101DF0005070032084F8510000256565C4F830A0B8
:101E0000A686E686A563A587E58765642564A06840
:101E1000B0F5004F03D00CE00220BDE8F88F206839
:101E2000016821F0400101602068016841F48041AF
:101E3000016020680168490603D4016841F040014F
:101E40000160E068B0F5006F606803D048B3012E10
:101E500027D047E008B1012E1FD1206B21680088F0
:101E6000C86006E020688168890709D5216B098868
:101E7000C160206B801C2063E08E401EE0860CE079
:101E8000FFF718FAA0EB0901414503D3B8F1FF3F72
:101E900003D035E0B8F1000F32D0E08E0028E1D158
:101EA00023E0206B21680078087306E020688168D1
:101EB00089070AD5216B09780173206B401C2063C8
:101EC000E08E401EE0860DE02BE0FFF7F3F9A0EB7B
:101ED0000901414503D3B8F1FF3F03D010E0B8F149
:101EE000000F0DD0E08E0028E0D14A464146204642
:101EF00000F018FF08B120206065A06830B109E04B
:101F000084F8517084F85050032086E72068C16837
:101F10008068009084F8517004F8505F6068002871
:101F2000F3D0012079E72DE9FF4F81B01D4693469C
:101F300004464FF001090E9EFFF7BCF9074694F8DE
:101F400051006168012806D0B1F5827F3CD1A168BB
:101F5000C9BB042838D10298002871D0BBF1000F0A
:101F6000FBD0002DF9D094F8500001282CD04FF070
:101F7000010A84F850A094F85100042802D00520EA
:101F800084F851004FF00008C4F85480C4F838B009
:101F9000E587A58702992163E586A586C4F8408078
:101FA000C4F8448020680168490603D4016841F000
:101FB00040010160E068B0F5006F606808D0F0B3E0
:101FC000012D49D081E0FFE7022005B0BDE8F08F88
:101FD00008B1012D39D1206B21680088C860206BC1
:101FE000801C2063E08E401EE0862EE02068816821
:101FF00089070FD5E18E69B1B9F1010F0AD1216BC3
:102000000988C160206B801C2063E08E401EE08642
:102010004FF0000920688168C9070CD0E18F51B1E9
:10202000C068A16B0880A06B801CA063E08F401E7D
:10203000E0874FF00109FFF73DF9C01B01E00BE01D
:1020400067E0B04201D3701C50D1E08E0028CDD1A2
:10205000E08F0028CAD13EE0206B21680078087329
:10206000206B401C2063E08E401EE0862DE020683F
:10207000816889070FD5E18E69B1B9F1010F0AD1E5
:10208000216B09780173206B401C2063E08E401E99
:10209000E0864FF0000920688168C9070CD0E18F05
:1020A00051B1C068A16B0870A06B401CA063E08FA9
:1020B000401EE0874FF00109FFF7FCF8C01BB0425B
:1020C00002D3701C01D011E086B1E08E0028CED181
:1020D000E08F0028CBD13A463146204600F022FE60
:1020E00050B12020606584F8508012E084F851A03F
:1020F00084F85080032068E7A06818B92068C16898
:102100008068009084F851A084F85080606D0028A9
:10211000F1D0012059E77047704710B5040003D093
:1021200094F83D0010B107E0012010BD002084F8B4
:102130003C00204600F01EF8022084F83D00211DDE
:10214000206801F051F8012084F8460084F83E0030
:1021500084F83F0084F8400084F8410084F842008D
:1021600084F8430084F8440084F8450084F83D0076
:10217000002010BD7047000090F83D10012901D0EB
:1021800001207047022180F83D100168CA6842F0C2
:102190000102CA6000680B49884208D0B0F1804F44
:1021A00005D00949884202D00849884204D1816893
:1021B00001F00701062903D0016841F00101016027
:1021C00000207047002C014000040040000800403F
:1021D00070472DE9F04104460068C66805694FF074
:1021E0000007A90713D5B10711D5F91E0161012018
:1021F0002077206880698007204602D0FFF7E8FF3B
:1022000004E000F07EF8204600F07CF827776807AD
:1022100016D5700714D521686FF0040008610220FC
:1022200020772068806910F4407F204602D0FFF7B5
:10223000CFFF04E000F065F8204600F063F8277750
:10224000280715D5300713D521686FF008000861FD
:10225000042020772068C0698007204602D0FFF75D
:10226000B7FF04E000F04DF8204600F04BF8277768
:10227000E80616D5F00614D521686FF01000086145
:10228000082020772068C06910F4407F204602D0E3
:10229000FFF79EFF04E000F034F8204600F032F82B
:1022A0002777E80708D0F00706D021686FF0010013
:1022B0000861204600F028F8280608D5300606D523
:1022C00021686FF0800008612046FFF724FF680650
:1022D00008D5700606D521686FF0400008612046D9
:1022E00000F01CF8A8060AD5B00608D521686FF0E2
:1022F000200008612046BDE8F041FFF70DBFBDE8B2
:10230000F08170477047000000680349884201D19E
:10231000FFF760B970470000002C0140704770B5AE
:10232000040004D094F84100002510B106E001201B
:1023300070BD84F84050204600F024F8242084F832
:1023400041002068C16821F40051C160204600F0BE
:10235000AFFF2068016921F4904101612068416963
:1023600021F02A0141612068C16841F40051C16037
:102370006564202084F8410084F8420065630020F1
:1023800070BD000030B585B0002400940194029423
:10239000039400681449884224D11448816941F4A7
:1023A00080418161816901F480410491816941F03A
:1023B0000401816180690E4D00F0040004904FF427
:1023C0000070009002200190032003906946284687
:1023D000FEF77AFE2815CDE90004694628460294E6
:1023E000FEF772FE05B030BD00380140001002401B
:1023F000000801402DE9F843044690F84100984652
:1024000016460D46202802D00220BDE8F88385B18B
:102410007EB100206064212084F84100FEF74AFF6D
:10242000A6848146E684A0682027B0F5805F02D0AC
:1024300003E00120E9E7206910B12E4600250EE0F7
:1024400000260CE08021204600F08EFFA8B9C6B11E
:1024500016F8010B21684860E08C401EE084E08C97
:102460004B464FF00002CDF800800028EAD14FF033
:102470004001204600F078FF40B184F8417003200D
:10248000C3E735F8020BC0F30800E3E784F84170B6
:102490000020BAE7FEE701684A69D24352050FD42B
:1024A0006FF480624A61002140F8301F202242739D
:1024B0008173026942F004020261017301207047D6
:1024C000002070472DE9F843044600680D46DDE919
:1024D000089701689846164641F4807101604B46A2
:1024E00000224FF001112046009700F06BF848B130
:1024F00020680068C00502D54FF4007020640320F6
:10250000BDE8F883216805F0FE0008613B464A46B5
:102510001549204600F09EF888B920684169806915
:1025200000903A464946204600F0F2F848B1206C47
:10253000042804D12068016841F400710160012081
:10254000DEE7F5B2B8F1010F09D02168300A086161
:102550003A464946204600F0DBF80028E7D12068DB
:1025600005610020CCE700000200010070B51646AE
:102570000D4604461EE02046FFF78DFF08B10120FE
:1025800070BD681C16D0FEF795FE801BA84200D8CF
:1025900085B920684069C04340070BD5002044F846
:1025A000300F20216173A073216941F02001216166
:1025B0002073E4E720684069C0434007DBD4002073
:1025C00070BD00002DE9F047984617460D460446B9
:1025D000C1F30746DDF820902AE000BFB8F1FF3FC5
:1025E00026D0FEF767FEA0EB0901414502D8B8F1FD
:1025F000000F1DD12068012E16D0806925EA000049
:102600000004000C12D00020B84211D1002044F880
:10261000300F20216173A073216941F020012161F5
:1026200020730120BDE8F0874069E7E70120EBE770
:102630002068012E0AD0806925EA00000004000C01
:1026400006D00020B842C9D00020EBE74069F3E78C
:102650000120F7E72DE9F047984616460D46044657
:102660004FF000094FF0200AC1F3074723E020682C
:102670004069C043400515D42068016841F40071E9
:10268000016021686FF480604861C4F8309084F87C
:102690003DA084F83E90216C41F00401216484F84F
:1026A0003C9021E0701C06D0FEF704FEA0EB080071
:1026B000B04203D816B1012F1FD021E02068012FAE
:1026C00015D0806925EA00000004000C18D000BF76
:1026D00044F8309F84F80DA084F80E90216941F0F1
:1026E0002001216184F80C900120BDE8F087406949
:1026F00025EA00000004000CEAD12068406901E0EE
:102700002068806925EA00000004000CAFD1ECE7E6
:1027100070B516460D4604461EE02046FFF7BBFE88
:1027200008B1012070BD681C16D0FEF7C3FD801BE8
:10273000A84200D885B920684069C04300060BD57F
:10274000002044F8300F20216173A073216941F00B
:10275000200121612073E4E720684069C04300063E
:10276000DBD4002070BD00000E4810B50C4901609C
:102770000221416000214FF440228160C0E9031230
:102780004FF480124261017641768176C1760177FD
:102790004177FEF741FB002801D072B6FEE710BD7D
:1027A00000640040D404002010B504490448FEF73A
:1027B0000EF90249491E087010BD00005D0000209E
:1027C0004800002030B585B00024184800940194DA
:1027D00002940394816941F020018161816901F0D3
:1027E00020010491816941F004018161816901F056
:1027F00004010491816941F00801816180690C4DF7
:1028000000F008000490012210212846FEF74CFD3C
:10281000102000900120CDE90104032003906946B7
:102820002846FEF751FC05B030BD00000010024004
:10283000000801400F4810B50D4901604FF4827146
:10284000416000218160C1604FF400720161C0E904
:1028500005122022C0E90721416281620A21C1627A
:10286000FFF71CFA002801D072B6FEE710BD000089
:102870000030014050050020FEE7FFF773F8FEE747
:1028800010B5064C4FF4FA70A4F8000000F064FA9A
:10289000FF2802D021880029F8D110BD3600002081
:1028A00070B50F4E04464FF4FA700D46A6F80000BE
:1028B00000F052FAFF2803D0FE2805D0002070BD9A
:1028C00030880028F4D1F9E700F046FA04F8010B4B
:1028D0006D1EF9D100F040FA00F03EFA012070BD03
:1028E0003600002070B50446FF260D46000607D5C9
:1028F00004F07F0400213720FFF7F4FF012809D8F6
:10290000FEF75CF8FF2000F039FAFFF7B9FFFF2867
:1029100001D0FF2070BD00F0FDF944F0400000F050
:102920002DFA280E00F02AFAC5F3074000F026FA27
:10293000C5F3072000F022FAE8B200F01FFA74B1E4
:10294000082C0ED05FF0010000F018FA00F004FA35
:102950000106DFD5761E16F0FF06F7D170BD952073
:10296000F2E78720F0E770B50C460546FFF788FFD1
:10297000FF2819D1204600F001FAFD2C16D00024C2
:102980004FF40076285D00F0F9F9641CB442F9DBDD
:10299000FF2000F0F3F9FF2000F0F0F900F0DCF97F
:1029A00000F01F00052801D0002070BD00F0D4F910
:1029B0000028FBD0012070BD2DE9F843D8BBDFF81B
:1029C0003891002189F80110FDF7F8FF0024FF205D
:1029D00000F0D4F9641CE4B2142CF8D33220FEF7D2
:1029E00061FB464C4FF47A78A4F800800021084639
:1029F000FFF778FF012809D00A20FEF753FB208853
:102A00000028F3D199F80100A8B102E0012189F86A
:102A1000011000264FF4D5710820FFF763FF01284D
:102A20000DD00021A920FFF75DFF012848D802261C
:102A3000A4F800803DE0FFE70120BDE8F883002511
:102A40004FEA0D0700F088F978556D1CEDB2042DA2
:102A5000F8D39DF8020001283ED19DF80300AA2872
:102A60003AD1A4F8008045072946A920FFF73AFF8C
:102A700030B10A20FEF716FB20880028F4D12BE0A5
:102A8000208848B300213A20FFF72CFF20BB002408
:102A900000F062F93855641CE4B2042CF8D39DF8B8
:102AA0000000400601D50C2616E0042614E020881C
:102AB00090B10021A920FFF715FF0028F7D10BE006
:102AC0000126A4F8008001E0208828B1002101201F
:102AD000FFF708FF0028F7D14C4689F80260FDF7A0
:102AE0006DFFFF2000F04AF91EB1207820F00100B0
:102AF00020702078A1E700000600002034000020AC
:102B00007FB515460E46012410B1042004B070BDF7
:102B10002C480078C00701D00320F7E700F0FAF84E
:102B2000EEB3012E02D0022E44D13AE0002109205A
:102B3000FFF7D8FEA0BB10216846FFF7B1FE78B3BF
:102B40009DF800100120B0EB911F08D19DF80820DE
:102B50009DF8091000EB0220084480021DE09DF85A
:102B600005009DF80A1000F00F0000EBD1109DF851
:102B700009109DF8072001F0030100EB41019DF8C9
:102B80000800800900EB82009DF8062002F0030295
:102B900000EB8220401CC91F8840286009E004E047
:102BA00008E04FF40070288003E0FFF769FEFF287B
:102BB00000D10024FDF702FFFF2000F0DFF82046DF
:102BC000A4E70000060000202DE9F0411C46154650
:102BD0000E4638B934B11F480178C90704D0032024
:102BE000BDE8F0810420FBE78078000700D455029F
:102BF00000F090F84FF40077012C294604D0122001
:102C0000FFF770FE78B11BE01120FFF76BFEB8B93B
:102C100039463046FFF744FE90B1FDF7CFFEFF2066
:102C200000F0ACF814E039463046FFF739FE18B131
:102C3000641E06F50076F6D100210C20FFF752FE47
:102C4000FDF7BCFEFF2000F099F80CB10120C7E7AA
:102C50000020C5E70600002008B1012070470148A8
:102C600000787047060000202DE9F0411C4615460B
:102C70000E4638B934B1264F3878C00704D0032047
:102C8000BDE8F0810420FBE7B878000700D45502C6
:102C900000F040F8012C0CD0B878400703D521464D
:102CA0009720FFF71FFE29461920FFF71BFE80B172
:102CB0001DE029461820FFF715FEC0B9FE21304659
:102CC000FFF751FE98B1FDF779FEFF2000F056F8AE
:102CD0001BE0FC213046FFF746FE18B1641E06F5E6
:102CE0000076F6D1FD210020FFF73DFE38B1FDF75B
:102CF00065FEFF2000F042F83CB10120C0E7FDF77F
:102D00005DFEFF2000F03AF8F7E70020B8E700008A
:102D100006000020002210210148FEF7C5BA00007D
:102D200000080140F8B515460E460B4600920446D1
:102D30000122022100F02CF840B933460022802104
:102D40002046009500F024F8002804D0606D40F083
:102D5000200060650320F8BD0EB5FF208DF804004B
:102D600064200090012302AA01A90348FFF7DBF8C1
:102D70009DF808000EBD00005005002001B5642339
:102D8000012269460148FFF71BF808BD50050020E5
:102D90002DE9F8431E46914688460446089DFEF7F5
:102DA00089FA401B351AFEF785FA07462548006860
:102DB000C0F3CB30684338E0701C37D0FEF77AFAA6
:102DC000C01BA84203D215B1009860B32CE0206864
:102DD000416821F0E00141606068B0F5827F0BD16D
:102DE000A068B0F5004F02D0B0F5806F04D1206824
:102DF000016821F040010160A06AB0F5005F09D1CF
:102E00002068016821F4005101602068016841F4E4
:102E100000510160012084F85100002084F8500026
:102E20000320BDE8F8830025401E009020688168DB
:102E300038EA010004D000214945BDD10020F0E767
:102E40000121F9E744000020012002F0DAFAFBE753
:102E500094B0344C4FF0FF394946206902F030FB02
:102E60000028F9D1E069FDF7CEFA07468846A06947
:102E7000FDF7C9FA05460E466069FDF7C4FA8DE80C
:102E8000E0010B46024628A104A800F0B9FA04A804
:102E9000FDF7C8F982B2642304A92C48FFF7AAFA07
:102EA000002002F023FF6069FDF7ADFA02460B46F1
:102EB00027A104A800F0A4FA0021084602F090FF20
:102EC000264E0125009596E80E0004A803F02CF884
:102ED000A069FDF798FA02460B4621A104A800F06C
:102EE0008FFA1621002002F07BFF009596E80E0075
:102EF00004A803F019F8E069FDF785FA02460B46CD
:102F00001BA104A800F07CFA2C21002002F068FF2D
:102F1000009596E80E0004A803F006F802F072FF90
:102F2000257099E70C000020504D322E353A2025AF
:102F30002E3166207C20543A20252E3266207C20BB
:102F4000483A20252E32660D0A000000A805002010
:102F5000504D322E353A20252E316600448400082B
:102F600054656D70203A20252E3266204300000003
:102F700048756D20203A20252E3266202525000038
:102F80001FB54FF4FA6002F03CFA6423132245A106
:102F90004948FFF72FFA4848012248A1483001F07C
:102FA00025FB474C024647A160704C4800F028FAC8
:102FB0004A48FDF737F982B2642348493E48FFF793
:102FC00019FA474E2078012867D1122245A14848B6
:102FD00001F04EFB6070021E0DD0404845A1403804
:102FE00000F00EFA3D484038FDF71CF93B496423D8
:102FF00082B240394CE03E48D0F80C1201F0A0F902
:1030000060690546FDF7E6F98346FDF7DAF92946DA
:10301000FDF764F93E49FDF764F9FDF7DBF9002897
:1030200000DA40420746A0690546FDF7D3F982461B
:10303000FDF7C7F92946FDF751F93146FDF751F97A
:10304000FDF7C8F9002800DA40420546E0698046ED
:10305000FDF7C0F98146FDF7B4F94146FDF73EF9A9
:103060003146FDF73EF9FDF7B5F9002800DA404298
:10307000CDE90290CDE900A53B465A4625A11C4862
:1030800001F0CAFB1A4801F03FF96423122227A17C
:103090000948FFF7AFF900202070642002F0B1F971
:1030A00090E70000436875616E206269204D6F757E
:1030B0006E742E2E2E0D0A00A805002000000000C0
:1030C0000C0000204D6F756E7420786F6E672C2099
:1030D000436F64653A2025640D0A0000900A0020C1
:1030E0000000C842444154412E43535600000000A2
:1030F0002408002053443A204C6F6920665F6F70AB
:10310000656E2120436F64653A2025640D0A000036
:103110000000204125642E25642C25642E253032A4
:10312000642C25642E253032640A000053443A2072
:103130004768692066696C65204F4B210D0A0000C5
:1031400010B5502080F31188BFF34F8FBFF36F8FFE
:1031500003F080FD18B104494FF080500860002052
:1031600080F3118810BD000004ED00E030B58FB091
:1031700028216846FDF74BF814210AA8FDF747F807
:1031800001252804CDE90050002407946846FEF785
:10319000F5FB08B172B6FEE70F200A90CDE90B549B
:1031A0000D9400210AA80E94FEF7DAFA08B172B65F
:1031B000FEE7FEF76BFB0FB030BD704707480178A4
:1031C00011B10178491E01700548017811B10178EB
:1031D000491E01700348FEF7FCBF000034000020C8
:1031E00036000020200D0020F0B50268194B1A4C63
:1031F0001A4D4FF08047984205D0B84203D0A04204
:1032000001D0A84203D122F070064A6832439842A6
:1032100005D0B84203D0A04201D0A84203D122F485
:103220004074CA6822434C6922F080022243026043
:103230008A68C2620A688262984201D109690163A0
:10324000012141610169C90703D0016921F0010130
:103250000161F0BD002C0140000400400008004066
:1032600001680C3151E8002F22F4907241E80023EC
:10327000002BF5D10168143151E8002F22F0010232
:1032800041E80023002BF5D1016B012909D1016828
:103290000C3151E8002F22F0100241E80023002BEE
:1032A000F5D1202180F84210002101637047000011
:1032B00070B5044600680169E26821F44051114389
:1032C00001612169A0680843616908432168CA68EF
:1032D00041F20C639A430243CA6020684169A269C3
:1032E00021F44071114341611E492068884202D196
:1032F000FEF702FB01E0FEF7EFFA00EBC00101EB85
:103300000012606864218000B2FBF0F3B3FBF1F3BC
:103310006FF018067343B2FBF0F5B2FBF0F605EB65
:103320008305322303EB0515B5FBF1F5B6FBF1F68A
:1033300005F0F00505EB0615B2FBF0F6B2FBF0F078
:10334000B0FBF1F06FF01802504306EB800003EB86
:103350000010B0FBF1F0216800F00F0028448860F5
:1033600070BD0000003801402DE9F843984617462B
:103370000D460446089E24E0701C22D0FDF79AFFFB
:10338000A0EB0800B0421AD8CEB12068C168490746
:1033900017D5802D15D0402D13D00168C9430907DA
:1033A0000FD401680025406800902046FFF758FFC1
:1033B0000820606484F840500120BDE8F8830320B1
:1033C000FBE72068006835EA000004D00020B8421E
:1033D000D2D00020F1E70120F9E700000148FDF715
:1033E0001DBC0000D4040020FFF7E6BAFFF788BB3D
:1033F000FFF7EABBFFF730BCFFF736BCFEE7000083
:103400000FB4084B10B504A902AA039800F0EEF817
:10341000044602A9002000F080FC204610BC5DF8A4
:1034200014FB00001B3D00080907090E002804DBFF
:1034300000F1E02080F80014704700F00F0000F168
:10344000E02080F8141D704702E008C8121F08C170
:10345000002AFAD170477047002001E001C1121F15
:10346000002AFBD1704700002DE9FF5F82B00021E8
:10347000DDE90430020DDDF840B0034318D044F616
:103480001050A2F2FF3242431514119801281FD0A8
:10349000A5EB0B00401C5FEA000A4FF000064E4F00
:1034A000DFF83891B046504615D5CAF1000413E054
:1034B000119801244AA3012801D16FEA0B01029857
:1034C000119AC0E90031C0E9024206B0BDE8F09FA0
:1034D000CBF10000DFE704460021404A491842EBE7
:1034E0000450CDE9001012E0E00707D032463B4619
:1034F00040464946FDF7BFF88046894632463B467E
:1035000010461946FDF7B7F806460F466410002C22
:10351000EAD1DDE90401DDE90023BAF1000F06DAA2
:10352000FDF7A9F842464B46FDF7A5F805E0FDF783
:1035300014F942464B46FDF710F904460E460022A8
:10354000284BFDF791F903D84FF0FF30014607E013
:103550000022254B20463146FCF7E6FFFDF76CF9CB
:10356000102409E0002C0ADB0A220023FCF774FF78
:10357000039B30321A55641E50EA0102F2D1641CDA
:10358000039AC4F111031444119A012A03D00122B1
:1035900008430DD10AE0084304D000204FF0110B7E
:1035A000119072E7A3EB0B056D1E0DE05B4504DD8A
:1035B0004FF0000205F1010504E003DA4FF00002CC
:1035C000A5F10105002AECD002981199C0E9023159
:1035D000C0E9004579E70000000014400000F03F1A
:1035E000300000000000F0430000E03F2DE9FF4FF5
:1035F00095B09B468946064600250FE2252877D1DF
:1036000000242746F84A0121059400E0044316F8F7
:10361000013F203B01FA03F01042F7D130782A280D
:1036200011D06FF02F033078A0F13002092A16D89C
:10363000059A44F0020402EB820203EB42021044BA
:10364000761C0590EFE759F8042B0592002A03DA5F
:10365000504244F40054059044F00204761C307843
:103660002E2816D116F8010F44F004042A280DD094
:103670006FF02F023078A0F13003092B09D807EB47
:10368000870302EB4303C718761CF3E759F8047B62
:10369000761C30786C280FD006DC4C2817D06828B0
:1036A0000DD06A2814D104E0742810D07A280FD1E4
:1036B0000DE044F400140AE044F4801401E044F402
:1036C00040147278824202D104F58014761C761C74
:1036D000307866280BD013DC582877D009DC002816
:1036E00075D04528F6D04628F4D047281AD19DE158
:1036F00018E0632835D0642879D0652812D195E187
:10370000702873D008DC6728F1D069286FD06E2844
:103710000DD06F2806D1B5E073282CD0752875D050
:10372000782874D05A46179990476D1C75E1C4F3F8
:103730000250022809D003280DD0D9F8001004281F
:103740000DD00D6009F1040967E1D9F80010EA17FE
:10375000C1E90052F6E7D9F800100D80F2E70D70CC
:10376000F0E719F8041B8DF8001000208DF8010017
:10377000EA46012003E059F804AB4FF0FF3061073F
:103780004FF0000102D40DE008F101018846B94272
:103790000FDA8045F8DB1AF808100029F4D108E0A8
:1037A00008F1010188468142FADB1AF80810002965
:1037B000F6D105985B46A0EB080721463846179AD4
:1037C00000F094FA284400EB080507E04DE029E1F9
:1037D0000DE01AF8010B5A4617999047B8F1010805
:1037E000F7D25B4621463846179A13E142E00A2297
:1037F0000092C4F302524FF0000A022A08D059F88E
:1038000004CB032A4FEAEC710AD00DE029E02AE04C
:1038100009F1070121F00702F2E802C1914609E02F
:103820000FFA8CFC4FEAEC71042A03D14FFA8CFC9E
:103830004FEAEC71002907DA0A460021DCF1000C9E
:1038400061EB02012D2202E0220504D52B228DF826
:103850000420012203E0E20701D02022F7E790468E
:1038600059E00A2102E010220DE010214FF0000A79
:1038700000910BE010224FF0000A44F004040827E6
:10388000009203E008224FF0000A0092C4F30252B3
:10389000022A05D059F804CB0021032A08D009E0F8
:1038A00009F1070121F00702F2E802C1914605E0A3
:1038B0001FFA8CFC042A01D10CF0FF0C4FF0000819
:1038C000220728D5702806D0009B83F0100353EA06
:1038D0000A0305D00EE040228DF80420012208E002
:1038E0005CEA010206D030228DF804208DF8050034
:1038F00002229046009B83F0080353EA0A030AD190
:103900005CEA010201D1620705D530228DF804205E
:103910004FF001087F1E582804D034A003900EA851
:1039200002900DE036A0F9E753466046009AFCF796
:1039300093FD84460398825C0298401E02900270B8
:103940005CEA0100F0D1029806A9081A00F1200AE9
:10395000600702D524F4803400E00127574502DDDA
:10396000A7EB0A0000E0002000EB0A010090059898
:103970004144401A0590E00306D45B462146179A5D
:10398000059800F0B3F90544002706E001A85A465F
:10399000C05D179990476D1C7F1C4745F6DBE0031F
:1039A0000CD55B462146179A059800F09FF905440F
:1039B00004E030205A46179990476D1C0099481E24
:1039C00000900029F5DC08E0029802995A46007838
:1039D000491C0291179990476D1CBAF10001AAF198
:1039E000010AF1DC65E100000928010030313233C1
:1039F000343536373839616263646566000000002B
:103A00003031323334353637383941424344454614
:103A10000000000000F058F90544761C30780028BA
:103A20007FF4ECAD19B02846BDE8F08F620700D4F2
:103A3000062709F1070222F0070CFCE80223E14601
:103A400003F000485FEA080C02D00FF2702C0DE082
:103A50005FEA045C02D50FF2682C07E05FEAC47CE1
:103A600002D00FF2602C01E0AFF2700C4FF0FF3883
:103A700023F00043CDF850C065280CD006DC452863
:103A800009D046281DD047283DD13DE0662818D0F2
:103A900067287ED138E00021112F01DB112000E0E2
:103AA000781CCDE9000106A90EA8FFF7DDFCDDE9D1
:103AB0000F010E9A03910021009207F1010A04916F
:103AC0004DE04FF000400097CDE9011006A90EA887
:103AD000FFF7CAFCDDE90F0203920E9B1199002249
:103AE000DDF80CA00093049211B9791C00EB010AD7
:103AF000B7EB0A0004D4C0F1FF3007F1010A0490CB
:103B0000AAEB0700019044E0012F00DA0127002111
:103B1000112F01DD112000E03846CDE9000106A992
:103B20000EA8FFF7A1FCDDE90F010E9A0391002119
:103B300004910092BA4621070CD40399514500DA4A
:103B40008A46BAF1010F05DD009AAAF10101515C24
:103B5000302908D0B84202DA10F1040F06DA012148
:103B6000CDE9011015E0AAF10101E9E7002805DC23
:103B7000049901440491AAEB000102E0411C514563
:103B800000DD8A460499401A401C01904FF0004025
:103B90000290200704D40198504501DBCDF8048041
:103BA00000208DF84F0002980DF14F07B0F1004F43
:103BB00025D02B200E9002984FF0020800280CDA36
:103BC000404202902D200E9007E00A210298FCF757
:103BD0002DFC3031029007F8011DB8F10001A8F169
:103BE0000108F2DC02980028EFD1791E0E980870C7
:103BF000307800F0200040F0450007F8020D12A8D0
:103C0000C01B00F107081498007800B1012000EBF8
:103C10000A01019801EBE07105984144401A401EE9
:103C20000590E00306D45B462146179A059800F0FC
:103C30005DF805441498007818B15A4617999047D2
:103C40006D1CE00324D55B462146179A059800F0C9
:103C50004DF805441CE00498002807DBDDE903016A
:103C6000884203DD0098405C179901E017993020E5
:103C70005A469047049805F10105401C04900198AC
:103C8000401E019004D12E205A46179990476D1C72
:103C9000BAF10001AAF1010ADDDC05E017F8010B19
:103CA0005A46179990476D1CB8F10001A8F1010818
:103CB000F4DC5B462146179A0598ABE62D00000020
:103CC0002B000000200000002DE9F04104460025F3
:103CD0001E461746880404D405E039462020B04724
:103CE0006D1C641EF9D52846BDE8F0812DE9F04130
:103CF000044600251E469046C80301D5302700E043
:103D00002027880404D505E041463846B0476D1C9D
:103D1000641EF9D52846BDE8F0810A68531C0B6083
:103D20001070704710B50446002084F80402401E4D
:103D3000C4F83002204601F049FB08B1032010BD51
:103D4000B4F8FE01A0F52A41553901D0022010BD7A
:103D500094F83600B4F8371040EA01210848B0EB77
:103D6000012F08D094F85210B4F8532041EA0221F0
:103D7000B0EB012F01D1002010BD012010BD0000CB
:103D800000464154F0B50022184B144602EB42069F
:103D900053F8265085B1D0F80072BD420DD103EB27
:103DA0008605D0F808626F68B74206D12D89B0F851
:103DB0000662B54204D000E00124521C022AE5D379
:103DC000022A01D079B904E05CB9022909D0122095
:103DD000F0BD02EB420003EB80004089B0F5807F2C
:103DE00001D00020F0BD1020F0BD0000680D0020C3
:103DF00030B50021064A0C4601EB410352F823502E
:103E0000854201D142F82340491C0229F4D330BD38
:103E1000680D0020D0F82422D0F80002490A90F85A
:103E20000202B1FBF0F0121D02CA19B1884203D39D
:103E3000401AF8E700207047116808447047D0F82E
:103E40001822891E921E8A4201D800207047D0F89D
:103E50002C2290F8020201FB002070472DE9F0416E
:103E60000F00054606D001F0F3F802280BD201201E
:103E7000BDE8F081D5F810621EB1D5F81802B04245
:103E800008D8012606E0411CF2D0D5F8181281426C
:103E9000EED83E463446D5F81802641CA04202D83B
:103EA0000224022E0AD32146284601F0D1F838B167
:103EB000411CDDD00128DBD0B442ECD10020D7E793
:103EC0006FF070422146284601F095FD30B957B198
:103ED00022463946284601F08EFD20B1012812D035
:103EE00001242046C4E7C5F81042D5F81402411C4D
:103EF000F7D0401EC5F8140295F8050240F0010005
:103F000085F80502EDE74FF0FF34EAE72DE9F047C9
:103F100089460C6800E0641C21782F29FBD05C29BD
:103F2000F9D0D0F818520B222021284601F047FA88
:103F3000002001460B460826E25C5B1C202A35D98E
:103F40002F2A33D05C2A31D02E2A01D0B04208D398
:103F5000082E38D12E2A36D108200B268906090EC4
:103F6000EAE7802A05D3244F41F003013A4412F8CE
:103F7000802C22A700E07F1C97F800C0BCF1000F46
:103F800002D09445F7D11EE0A2F14107192F02D8C3
:103F900041F0020107E0A2F16107192F03D8203A8E
:103FA00041F00101D2B22A54401CC5E71C44C9F8B3
:103FB0000040202A01D8042200E0002218B128780D
:103FC000E52803D004E00620BDE8F087052028702E
:103FD000082E01D18806010E01F00300012801D14D
:103FE00042F01002C1F38100012801D142F0080221
:103FF000EA720020E8E70000DA840008222A2B2C6D
:104000003A3B3C3D3E3F5B5D7C7F0000401E02280A
:1040100015D20C4B00EB400203EB82014889B0F54E
:10402000807F05D008B1401E80B2488110B104E005
:104030000020FAE7002043F8220000207047022009
:1040400070470000680D00202DE9F041B0F80662CD
:104050000446761C30040F46000C37D0D4F810020A
:1040600098B3310773D1401CC4F81002D4F80C1275
:10407000D4F8000231B190F80222521E12EA161F43
:1040800005D064E0B0F80802B0421FD95FE000F04C
:10409000DFFF054601281ED9681C3AD0D4F800027B
:1040A000D0F81812A94249D87FB1D4F80C12FFF702
:1040B000D5FE05000DD0012D0DD0681C29D0D4F8F7
:1040C000000201F0AEFF20BB07E0FFE70420BDE8DF
:1040D000F0810720FBE70220F9E74FF4007200218E
:1040E000D4F8000201F06BF92946D4F80002FFF77A
:1040F000A6FED4F8001200274FF00108C1F83002E4
:1041000011E000BF80F80482D4F8000201F089FFBA
:1041100008B10120DBE7D4F80002D0F83012491CC6
:104120007F1CC0F83012D4F8000290F80212B94295
:10413000E8D8D0F83012C91BC0F83012C4F80C52BD
:104140002946D4F80002FFF77AFEC4F81002A4F85A
:104150000662D4F8000206F00F0100EB4110C4F82B
:1041600014020020B3E770B50446002100F036F8D1
:1041700010E0D4F81012D4F8000201F027F958B971
:10418000D4F814020078E52809D040B10121204676
:10419000FFF75AFF0028ECD0042809D009E0D4F832
:1041A0001012D4F8000201F011F9050003D013E059
:1041B0000720054610E0D4F814022022002104F55F
:1041C000007401F0FCF8D4E905010B2201F0EEF8CF
:1041D0002168012081F80402284670BD70B5A0F85E
:1041E0000612D0F808320D460446012B40D0D4F810
:1041F0000002D0F8181299423AD933B990F8001257
:10420000032906D1D0F828321BB190F8020206012A
:1042100014E0B0F80812A9422AD9D0F8280214E014
:1042200000F016FF0346401C20D0022B20D3D4F808
:104230000002D0F8180298421AD9AD1BD4F8000237
:10424000B5421946ECD2FFF7FAFDC4F80C3278B14A
:1042500000EB1510C4F81002D4F8000205F00F01AD
:1042600000EB4110C4F81402002070BD012070BDA5
:10427000022070BD084910B50B5C002253B9012221
:104280000A540A1801EB8000127A4068016810464F
:1042900088470246104610BD800D002030B4054C02
:1042A000231804EB80001B7A406804691846A44672
:1042B00030BC6047800D002030B4054D2C1805EB54
:1042C0008000247A406885682046AC4630BC604750
:1042D000800D0020044A111802EB8000097A406822
:1042E0004268084610470000800D002030B4054D9C
:1042F0002C1805EB8000247A4068C5682046AC463F
:1043000030BC6047800D002070B5054600F079FB99
:10431000040012D1284602F0E9F804000DD1D5F8C6
:104320000062D5F82802FFF771FE040001D1C5F83C
:1043300000020021304601F0A4FE204670BD0000BE
:104340002DE9FC5F0D46044602F0D0F85FEA000953
:1043500079D194F8071239B1D4F8000201F091FE36
:1043600094F80702BDE8FC9FD4F8240201274FF01F
:10437000020A00287DD0691C33D0D4F80C02A84270
:1043800000D20546C4F80852002D5CD02046691EB4
:10439000FFF740FD0146C4F81402D4F80002FFF70D
:1043A0004EFD002866D0D4F800126D1E91F802224E
:1043B000521E02EA55221518B4F80802C005E4D0CE
:1043C000D4F81822AA42E0D094F80602400644D558
:1043D00091F8010201232146FFF788FF002873D1DD
:1043E00035E002C80091D4F810128346022509B3C3
:1043F0000026AD1C01918846761CD4F8000200F01E
:1044000027FE0146012835D9481C5DD008F101007E
:104410008142F0D00098854206D8CBF800600BF1BD
:104420000400019A04C08346D4F80002D0F81802B0
:104430008842DDD8D4F8240205600098854203D86C
:104440000021CBF80010CAE04FF01109C7E094F842
:10445000060220F0400084F80602D4F8000201238E
:104460002A4690F801022146FFF726FF00282BD1AB
:1044700001E003E083E0C4F81852B0E0D4F80C0285
:10448000A84204D294F80612890700D405464FF0DA
:104490000008D4F80802C4F808823DB3D4F800221A
:1044A00092F802124E0280B1691E401EB1FBF6F175
:1044B000B0FBF6F3994208D3711E8843C4F8080292
:1044C0002D1AD4F8141210E072E0D4F8101251B979
:1044D00000211046FFF7C2FC014601284FD0481CBE
:1044E00066D0C4F81012C4F8141211BB31E000BF3A
:1044F00094F806028007D4F8000205D5FFF7AEFC59
:10450000010004D1354616E000F0A2FD0146481C2A
:104510004ED0012933D9D4F80002D0F818028842CD
:104520002DD9C4F81412D4F80802AD1B3044C4F8D5
:104530000802B542DCD8D4F808022844C4F80802BE
:10454000E80506D0D4F80002FFF779FCB8B100EB1B
:104550005528B4F80802C00535D0D4F818224245D1
:1045600031D094F80602400618D5D4F80002012391
:10457000214690F80102FFF7B9FEC8B908E084F8B7
:1045800007A20221D4F8000201F07BFD0220E9E637
:1045900094F8060220F0400084F80602D4F80002E5
:1045A0000123424690F801022146FFF785FE40B103
:1045B00084F807720121D4F8000201F062FD0120A5
:1045C000D0E6C4F81882D4E98201884207D9C4F839
:1045D0000C0294F8060240F0200084F806024946D6
:1045E000D4F8000201F04DFD4846BBE62DE9F74145
:1045F00081B0904602980090684600F08CFD04005F
:1046000003D50B2004B0BDE8F081184E002756F802
:1046100024504DB12846FFF7EBFBD5F80C0200F013
:1046200074FBA0B185F80072019939B181F800726C
:10463000E0B201F5037100F05AFB40B1019846F871
:10464000240010B1B8F1010F03D00020DAE70220F6
:10465000D8E7002202A901A800F068FB0446014641
:10466000019801F00EFD2046CCE700006800002014
:104670002DE9F747ADF50B7D06000ED04FF0000891
:1046800002F01F0727F001028CA980A8C6F800825B
:1046900000F04CFB040005D0B4E009200DF50E7DC0
:1046A000BDE8F08788A8869068468C9900F070FC79
:1046B000859D04000BD11DB1780803D0012102E0D3
:1046C000062404E000216846FFF75CFB044617F06F
:1046D0001C0F5FD04FF0010AD4B1042C13D100207D
:1046E0004C4902E0401C022805D200EB400251F880
:1046F0002220002AF6D1022804D06846FFF733FDB5
:10470000044600E01224859D47F0080754B179E083
:10471000E87A10F0110F01D0072473E0780701D573
:1047200008246FE0380743D500F0F3FCA873010AB2
:10473000E973010C2974000E687485F80B8085F804
:104740001C8085F81D8085F81E8085F81F8029460D
:10475000809800F055FD81460021284601F0FEFBBF
:104760008099B9F1000F81F804A21FD080984946C2
:10477000D0F830A201F06AFA040043D18099A9F17F
:104780000100C1F810025146809800F01FFE04009D
:104790000AD037E0B4BBE87AC10601D5042431E081
:1047A000B90701D5C007B7D1380701D547F02007B1
:1047B0008098D0F83002C6E98705780801D0012139
:1047C00000E00021684600F0CBFCC6F82802F8B1F2
:1047D00086F8067286F807824746294606F500766F
:1047E000809800F00DFD3061287FD5F81D1040EA5B
:1047F0000120C6E90270B761776280983060B0F836
:104800000602B0802146809801F03BFC204645E737
:104810000224F7E7680D00200FB42DE9F0479AB0A5
:104820000DF190090290002003900DF154080490BE
:10483000239810F8011B2390002976D0252903D056
:1048400002A801F054F9F3E7002510F8011B2E46E9
:104850002390302902D02D2902D010E0012500E05C
:10486000022510F8011B239009E000BF06EB86002B
:1048700001EB40062398303E10F8011B2390A1F174
:1048800030000928F2D96C2901D04C2905D1239890
:1048900045F0040510F8011B2390002945D0A1F133
:1048A00061000A46192801D8203AD2B24F2A42D0D4
:1048B00006DC422A3DD0432A38D0442AC0D13CE00D
:1048C000532A0DD0552A38D0582AB9D11023680759
:1048D00001D4442A33D059F8040B442A31D035E0AE
:1048E00059F8047B002400E0641C385D0028FBD1EB
:1048F000A80704D50CE0202102A801F0F8F8204612
:10490000641CB042F7D303E002A87F1C01F0EFF86B
:1049100039780029F8D103E0202102A801F0E7F856
:104920002046641CB04283D2F6E753E019F8041B1A
:1049300086E70223CBE70823C9E70A23C7E759F82C
:10494000040B002802DA404245F0080500244746DF
:10495000B0FBF3F203FB1202B0FBF3F0D2B2092A70
:1049600005D9782914D04FF0070C6244D2B2303206
:104970003A55641C08B1102CEAD3280703D52D2022
:1049800008F80400641C2746E80704D0302003E040
:104990004FF0270CE9E72020824603E0514602A8A9
:1049A00001F0A5F8A80703D438467F1CB042F5D320
:1049B0004546641E02A8295D01F099F8002CF8D143
:1049C00003E0514602A801F092F838467F1CB0423D
:1049D000A9D2F6E70398002810DB024601AB05A92F
:1049E000029800F077F848B901990398884205D1F8
:1049F00004981AB0BDE8F0075DF814FB4FF0FF30E3
:104A0000F7E770B5044601F071FD05005BD194F83D
:104A10000602810657D5400617D5D4F800020123B7
:104A2000214690F80102D4F81822FFF75FFC30B15C
:104A30000121D4F8000201F024FB012070BD94F89C
:104A4000060220F0400084F80602D4F81C12D4F8C4
:104A5000000200F0BBFC050035D1D4F82052E87A02
:104A600040F02000E87294F80C022877B4F80C02A9
:104A7000000A6877D4F80C02000CA877D4F80C026E
:104A8000000EE877D4F81012284604F5007401F0FF
:104A900065FA00F03EFBA875010AE975010C29765C
:104AA000000E68760020A874E874A07920F0200039
:104AB000A0712168012081F804022068A4F5007427
:104AC00001F054FA05462946D4F8000201F0D9FA5B
:104AD000284670BD2DE9F84F04460020186099461D
:104AE00015468846204601F001FD060007D03146F4
:104AF000D4F8000201F0C5FA3046BDE8F88F94F80A
:104B0000071231B1D4F8000201F0BBFA94F80702A1
:104B1000F3E794F80602800706D40721D4F80002D0
:104B200001F0AFFA0720E8E7D4F80802012741199D
:104B30004FF0020A81426DD3C3E000BFD4F80812DF
:104B4000C80568D1D4F8002292F80202401E00EA9B
:104B5000512010F0FF061ED131B1D4F8240240B12B
:104B60002046FFF757F909E0D4F8100240B90021B8
:104B700001E0D4F814121046FFF770F9002849D06C
:104B800001283DD0411C70D0C4F81402D4F8101292
:104B900009B9C4F8100294F80602400610D5D4F8FA
:104BA00000020123214690F80102D4F81822FFF7F1
:104BB0009DFB70BB94F8060220F0400084F80602CA
:104BC000D4F81412D4F80002FFF739F9C0B1304418
:104BD0000090680A5FEA000B34D0D4F8000206EBBC
:104BE0000B0290F802128A4201D9A1EB060B90F851
:104BF00001025B464146009AFFF778FB48B90BE09B
:104C000084F807A20221D4F8000201F03AFA022047
:104C100073E72AE058E034E0D4F818120098081A34
:104C200058450CD208EB40214FF40072204600F0AA
:104C3000BDFB94F8060220F0400084F806024FEA1B
:104C40004B2632E0D4F818120098814216D0D4E9ED
:104C50008201884212D2D4F800020123214690F842
:104C60000102009AFFF728FB40B184F80772012186
:104C7000D4F8000201F005FA01203EE70098C4F8DC
:104C80001802B4F80802C0F30800C0F50076AE427E
:104C900000D92E4620443246414600F087FB94F866
:104CA000060240F0400084F80602D4F80802B0443E
:104CB0003044C4F80802D9F800008119AD1BC9F8C6
:104CC0000010002D7FF43AAFD4E98201884201D967
:104CD000C4F80C0294F80602002140F0200084F889
:104CE0000602D4F8000201F0CCF9002005E71CB55B
:104CF00000200C46009001900121684600F08DFBD9
:104D00002060002800D001201CBD10B500F0A4FBDD
:104D1000012010BD00F0ACBB10B500244FF47A7137
:104D200000F0CEFB00B90124204610BD2DE9FF475D
:104D30004FF000090746C0F800901646084600F0FC
:104D4000EAF9050003D50B2004B0BDE8F0878D48D3
:104D500050F82540C4B1204600F05CFAB0B13C6088
:104D600094F8000228B194F80102FFF7B3FAC107E2
:104D70000ED084F80092E8B284F80102FFF77AFAC4
:104D8000C1070AD00320DFE70C20DDE70F20DBE7B7
:104D90000EB1400704D40020D6E71EB1400701D56C
:104DA0000A20D1E7002529462046FEF7BBFF01284F
:104DB00023D100204FEA0D0704EB001191F8C22126
:104DC00001F5DF712AB10A7AD1F8091042EA01210E
:104DD00000E0002147F82010401C0428ECD30026F6
:104DE00057F826502DB129462046FEF79BFF08B9FB
:104DF00009E00220761C042EF2D3032801D0E0BB88
:104E000001E00120A0E7B4F80B00B0F5007F60D10D
:104E1000E28A2AB994F82400D4F8251040EA012245
:104E2000C4F81C22217C84F80312012901D0022934
:104E30004FD1607B514384F80202F0B1431E184207
:104E400047D1B4F81130A4F808321E0741D1B4F8A4
:104E500013602EB994F82060D4F8217046EA072632
:104E6000B4F80EC0BCF1000F33D00CEB010707EB18
:104E70001317BE422DD3F61B00E02AE0B6FBF0F07C
:104E800038B3012640F6F678404500D302264FF6A7
:104E9000F678404500D30326801C2F44C4F82C72BA
:104EA000AC44C4F81802C4E9885C032E13D083B163
:104EB0006144C4F82812022E19D000F0010100EB61
:104EC000400001EB500000BF00F2FF10B2EB502F8A
:104ED0000FD20D2038E7002BFBD194F82C10D4F81A
:104EE0002D30800041EA0321C4F82812ECE740008D
:104EF000EAE74FF0FF30C4F81402C4F81002802033
:104F000084F80502032E30D1208E01282DD12046B1
:104F1000691C00F05BFA40BB84F80592B4F8FE010E
:104F2000A0F52A41553920D12078D4F8011040EA63
:104F300001201549884218D194F8E401D4F8E5110C
:104F400040EA0120114988420FD194F8E801D4F8D1
:104F5000E91140EA0120C4F8140294F8EC01D4F8F5
:104F6000ED1140EA0120C4F81002064984F80062FD
:104F7000091F0888401C0880A4F806022046FEF796
:104F800037FF08E7680000205252614172724161A8
:104F900073B50446019908782F2801D05C2801D107
:104FA000491C01910025C4F8085201980078202876
:104FB00006D200212046FFF711F9C4F814527CBD37
:104FC00001A92046FEF7A2FF0028F8D100212046C3
:104FD000FFF704F920BB00BFD4F81012D4F8000288
:104FE00000F0F4F9E0B9D4F814120A7832B1CA7AB0
:104FF00012070FD40A23D4F8182203E004200FE08C
:105000005B1E06D311F8015B12F8016BAD1BF7D0E4
:1050100000E02DB100212046FFF716F80028DBD074
:10502000D4F81812C97A28B10428C8D14907C6D4BF
:1050300005207CBD4907FCD4D4F81412C87AC006F8
:10504000F6D5D4F8000200F0DBF8C4F80802B7E7A0
:105050002DE9F0410D46044602290DD3D4F818027B
:10506000A84209D994F800024FF0FF36012807D072
:1050700002282AD0032836D001263046BDE8F08128
:10508000D4F8240205EB550700EB5721204600F029
:105090009DF90028F1D1C7F308007F1C14F80080A7
:1050A000D4F8240200EB5721204600F08FF90028A5
:1050B000E3D1C7F30800215C48EA0120E90701D0E9
:1050C0000609DAE7C0F30B06D7E7D4F8240200EBB1
:1050D0001521204600F07AF90028CED1E8B204EB81
:1050E00040000688C9E7D4F8240200EBD511204619
:1050F00000F06CF90028C0D140F2FF1000EA8500F2
:1051000020440178D0F8010041EA002020F07046E8
:10511000B3E70020704710B504464FF0FF30226817
:10512000002A13D0114600E0491C0B78212B0ED326
:105130003A2BF9D112F8013B303B0A2B06D28A42B6
:1051400004D1002B02D1491C1846216010BD00205B
:1051500010BDEFF30580002800D00120704700004B
:10516000F0B50346254AD3F80042002000EB400585
:1051700052F82560A6420BD102EB8505D3F80862F0
:105180006F68B74204D12D89B3F80662B54202D0E8
:10519000401C0228EAD302281AD1002002E0401C59
:1051A000022805D200EB400552F82550002DF6D11B
:1051B000022815D000EB400542F8254002EB85049B
:1051C000D3F808626660B3F8063223810023638156
:1051D000002900EB400102EB8101498902D019B19D
:1051E0000020F0BD491C01E04FF4807100EB40034A
:1051F00002EB8302401C5181F0BD0000680D0020CD
:105200000246488B92F80022032A02D1898A40EA9A
:1052100001407047D0F80C02FFF77EBDA2B0FCF74A
:10522000E1F9FDF7A3FFFDF7CDFAFDF79DFA4E4832
:105230004C49002401604FF4E131C0E901140C2114
:10524000C460C0E904418461C461FDF768F808B135
:1052500072B6FEE744484549AC3801604449C0E9AC
:1052600001144FF48041C0E9034144618461C46189
:105270000462FCF725F808B172B6FEE7FDF7DAFA2A
:10528000FDF792FA012210213A48FCF70DF800F0E0
:1052900039FD002000F02AFD0A21192000F0A0FDB0
:1052A00035480125009590E80E0034A000F03CFE42
:1052B0001E21232000F094FD3448009590E80E0054
:1052C00033A000F031FE00F09DFD40F2DC50FBF712
:1052D000E9FECDE9064542F260400895CDE90104BA
:1052E000CDE903040E200594CDE909501E4801A91B
:1052F000D438FBF7A1FB08B172B6FEE71A48D438E0
:10530000FBF79CFE18480221D438FBF783FB20945E
:10531000012120A8219400F080F81F4C1C221F4975
:1053200020610BA8FAF75AFF00210BA800F0FAF849
:105330001A4960601C221C3112A8FAF74FFF0021A5
:1053400012A800F0EFF81549A0601C22383119A806
:10535000FAF744FF002119A800F0E4F8E06000F03B
:1053600057F8FEE700380140A8050020005400402F
:10537000801A06000008014044840008444556494C
:105380004345205245414459000000005084000824
:1053900047415445574159000C0000205C840008E7
:1053A00001460020842900D0C81C704704E000BFDB
:1053B00011F8013B00F8013B521EF9D27047C9B207
:1053C00001E000F8011B521EFBD2704770B5054684
:1053D000D0F830020C460026A04210D0284600F03B
:1053E00020FE06000BD195F8010201232246294632
:1053F000FEF762FF08B1741E0126C5F83042304640
:1054000070BD10B500B9012000F068FF002010BD8C
:1054100010B500F0FFFF002010BD38B543684BB158
:10542000012909D10320002200901146012001F03A
:10543000F2F838BD012901D0002038BD0322002137
:10544000012001F0C7F8040004D000231A461946D1
:1054500001F058F9204638BD10B50446FFF779FE33
:1054600008B1822010BD204600F00CFF002010BDC6
:1054700038B5002405460094FFF76BFE90B16946ED
:10548000284601F0EFF9012801D0FF2038BD00982F
:1054900088B10A494FF080500860BFF34F8FBFF3C7
:1054A0006F8F08E000231A461946284601F02AF9B2
:1054B000012800D0FF24204638BD000004ED00E0A4
:1054C00038B505004FF0000000900FD00024481CB4
:1054D0000ED001B10C46FFF73CFEB8B16A46002180
:1054E000284601F00DFA012816D104E0802038BDCD
:1054F0004FF0FF34EFE7009880B109494FF080503A
:105500000860BFF34F8FBFF36F8F07E02146284637
:1055100001F044FA012801D0FF2038BD002038BD39
:1055200004ED00E07FB50D4604464169B0F908007E
:1055300081B1A16971B1FFF733FFD4E905128DE89C
:105540000700D4E900102B46226901F04AFB0390C2
:1055500004B070BDFFF724FF03A9CDE90001208A44
:105560002B4682B2D4E9001001F00EFB012801D0D5
:105570000020EDE70398EBE72DE9F041184C0F46CA
:105580000546E6682068001D00F08AFD38B92068ED
:1055900090F82C1001208840216981432161681C0A
:1055A00007D137B12168BDE8F0410E48091D00F070
:1055B000BBBD20683544B5424560216805D2A06B6B
:1055C000BDE8F041091D00F097BD606B091D00F0BA
:1055D00093FDA06A854200D2A562BDE8F08100007B
:1055E0006C000020A80E00202DE9F041054600F0D7
:1055F000A7FD2E4CA068401CA06020682C4F10B165
:10560000606940B32DE02560A068012829D10026FB
:1056100006EB860007EB800000F060FD761C072E8D
:10562000F6D323488C3000F059FD2148A03000F01B
:1056300055FD1F48B43000F051FD1D48C83000F042
:105640004DFD1B48DC3000F049FD19488C3060638B
:105650001430A06305E02068E96AC06A884200D877
:105660002560606A401C6062E96A01202269884006
:105670001043206101EB810007EB8000291D00F041
:1056800053FD00F07DFD606900280CD02068E96AB8
:10569000C06A884207D207494FF080500860BFF3C4
:1056A0004F8FBFF36F8FBDE8F08100006C000020CA
:1056B000CC0D002004ED00E030B4026C0B46002A53
:1056C0000BD0C1681144C1608468A14201D3016854
:1056D000C16030BC1846FAF781BD30BC70472DE977
:1056E000F041856B174604460026026C82B1C7B1B3
:1056F000E068FAF773FDE168206C091AE16022683E
:10570000914202D2A168081AE060022F16D017E079
:105710002068A8B9A06801F003FB06460020A0603D
:105720000EE06068FAF75AFD216C6068084460601A
:10573000A168884204D32068606001E005B16D1E55
:105740006D1CA5633046BDE8F08110B5044690F8A5
:10575000510058B101280CD002280FD0502080F3FE
:105760001188BFF34F8FBFF36F8FFEE7206B00F000
:105770001BFD2046BDE8104000F016BD10BD000026
:1057800010484FF42051420706D0C01D0D4920F0AB
:105790000700411AC1F520510B4A00230144C2E918
:1057A00000030839183A21F0070111604B600B60C3
:1057B0000B1AC0E9001393604FF000405360506132
:1057C00070470000BC0E0020C0000020144E154C95
:1057D000A6F1C8074FF08058DFF84C9012E000BFE8
:1057E00000F0AEFCF068C568281D00F059FCA06808
:1057F000401EA0606068401E606000F0C1FC28464A
:10580000FFF7A3FF60680028EAD138680128F9D9BA
:10581000C9F80080BFF34F8FBFF36F8FF2E700002E
:10582000940E00206C00002004ED00E00346009878
:1058300029B10260C0E90F31012100F01FBF0060F3
:10584000F8E72DE9F0479A46DDE9098481466FF0D3
:105850000303206B03EB82021044089E20F007072D
:10586000780707D0502080F31188BFF34F8FBFF324
:105870006F8FFEE7002561B1002023180A5C83F8D2
:1058800034200A5C12B1401C1028F6D384F843502F
:1058900001E084F83450072E00D30626E662C4E9FE
:1058A0001165201D00F025FC04F1180000F021FC1A
:1058B0002461C6F107006462A061E56484F8505079
:1058C00052464946384600F0AFF92060B8F1000F63
:1058D00001D0C8F80040BDE8F087000030B511499C
:1058E00000E011460A688242FBD34B685C18844290
:1058F00003D1406818444860084643681C18944225
:1059000009D1084C183C2468A24209D052681A44B4
:1059100042600A6812680260814200D0086030BDAF
:105920000460F9E7C000002010B5044600F008FC50
:10593000A06B28B15FF0000400F022FC204610BDEF
:105940000124F9E70648416B096829B1416BC96830
:10595000C9684968816270474FF0FF31FAE700007B
:105960006C00002008484068401C4FF0500080F355
:10597000118804D0BFF34F8FBFF36F8FFEE7BFF3E3
:105980004F8FBFF36F8FFEE7C80000202DE9F04175
:10599000044600F0D5FB94F9455004F1240609E0D3
:1059A000606A48B1304601F04DFA08B100F0C4FC1D
:1059B0006D1E6DB2002DF3DC4FF0FF3684F84560AC
:1059C00000F0DEFB00F0BCFB94F9445004F110073A
:1059D00009E0206948B1384601F034FA08B100F016
:1059E000ABFC6D1E6DB2002DF3DC84F84460BDE8A5
:1059F000F04100F0C5BB2DE9F04717460D460446BF
:105A0000022903D3D4F81802A84202D80220BDE824
:105A1000F08794F8001207F0FF084FF00109012900
:105A200020D0022950D00329F0D1D4F8240200EB71
:105A3000D5112046FFF7CAFC0028E8D140F2FF113B
:105A400001EA85010A194FF07043D2F8011003EA08
:105A50000121394311700B0A53700B0C9370090E1E
:105A6000D17041E0D4F8240205EB550600EB562135
:105A70002046FFF7ABFC0028C9D1C6F30800761C0E
:105A80002044E90703D0017868F31F1100E039468C
:105A9000017084F80492D4F8240200EB56212046C9
:105AA000FFF794FC0028B2D1C6F308012144EA07AD
:105AB00002D0C7F3071205E00A78C7F3032302F008
:105AC000F0021A430A700FE0D4F8240200EB15210B
:105AD0002046FFF77BFC002899D1E9B204EB410195
